{"abi":[{"inputs":[{"internalType":"uint256","name":"minimum","type":"uint256"},{"internalType":"address","name":"creator","type":"address"}],"stateMutability":"nonpayable","type":"constructor"},{"inputs":[{"internalType":"uint256","name":"index","type":"uint256"}],"name":"approveRequest","outputs":[],"stateMutability":"nonpayable","type":"function"},{"inputs":[{"internalType":"address","name":"","type":"address"}],"name":"approvers","outputs":[{"internalType":"bool","name":"","type":"bool"}],"stateMutability":"view","type":"function"},{"inputs":[],"name":"approversCount","outputs":[{"internalType":"uint256","name":"","type":"uint256"}],"stateMutability":"view","type":"function"},{"inputs":[],"name":"contribute","outputs":[],"stateMutability":"payable","type":"function"},{"inputs":[{"internalType":"string","name":"description","type":"string"},{"internalType":"uint256","name":"value","type":"uint256"},{"internalType":"address","name":"recipient","type":"address"}],"name":"createRequest","outputs":[],"stateMutability":"nonpayable","type":"function"},{"inputs":[{"internalType":"uint256","name":"index","type":"uint256"}],"name":"finalizeRequest","outputs":[],"stateMutability":"nonpayable","type":"function"},{"inputs":[],"name":"getBasicData","outputs":[{"internalType":"uint256","name":"","type":"uint256"},{"internalType":"uint256","name":"","type":"uint256"},{"internalType":"uint256","name":"","type":"uint256"},{"internalType":"uint256","name":"","type":"uint256"},{"internalType":"address","name":"","type":"address"}],"stateMutability":"view","type":"function"},{"inputs":[],"name":"getRequests","outputs":[{"components":[{"internalType":"string","name":"description","type":"string"},{"internalType":"uint256","name":"value","type":"uint256"},{"internalType":"address","name":"recipient","type":"address"},{"internalType":"bool","name":"complete","type":"bool"},{"internalType":"uint256","name":"approvedCount","type":"uint256"}],"internalType":"struct Campaign.Request[]","name":"","type":"tuple[]"}],"stateMutability":"view","type":"function"},{"inputs":[],"name":"manager","outputs":[{"internalType":"address","name":"","type":"address"}],"stateMutability":"view","type":"function"},{"inputs":[],"name":"minimunContribution","outputs":[{"internalType":"uint256","name":"","type":"uint256"}],"stateMutability":"view","type":"function"},{"inputs":[{"internalType":"uint256","name":"","type":"uint256"}],"name":"requests","outputs":[{"internalType":"string","name":"description","type":"string"},{"internalType":"uint256","name":"value","type":"uint256"},{"internalType":"address","name":"recipient","type":"address"},{"internalType":"bool","name":"complete","type":"bool"},{"internalType":"uint256","name":"approvedCount","type":"uint256"}],"stateMutability":"view","type":"function"}],"devdoc":{"kind":"dev","methods":{},"version":1},"evm":{"assembly":"    /* \"Campaign.sol\":397:2272  contract Campaign {... */\n  mstore(0x40, 0x80)\n    /* \"Campaign.sol\":768:873  constructor(uint minimum, address creator){... */\n  callvalue\n  dup1\n  iszero\n  tag_1\n  jumpi\n  0x00\n  dup1\n  revert\ntag_1:\n  pop\n  mload(0x40)\n  sub(codesize, bytecodeSize)\n  dup1\n  bytecodeSize\n  dup4\n  codecopy\n  dup2\n  add\n  0x40\n  dup2\n  swap1\n  mstore\n  tag_2\n  swap2\n  tag_3\n  jump\t// in\ntag_2:\n    /* \"Campaign.sol\":816:823  manager */\n  0x01\n    /* \"Campaign.sol\":816:833  manager = creator */\n  dup1\n  sload\n  not(sub(shl(0xa0, 0x01), 0x01))\n  and\n  sub(shl(0xa0, 0x01), 0x01)\n  swap3\n  swap1\n  swap3\n  and\n  swap2\n  swap1\n  swap2\n  or\n  swap1\n  sstore\n    /* \"Campaign.sol\":839:858  minimunContribution */\n  0x02\n    /* \"Campaign.sol\":839:868  minimunContribution = minimum */\n  sstore\n    /* \"Campaign.sol\":397:2272  contract Campaign {... */\n  jump(tag_7)\n    /* \"#utility.yul\":14:385   */\ntag_3:\n  0x00\n  dup1\n    /* \"#utility.yul\":154:156   */\n  0x40\n    /* \"#utility.yul\":142:151   */\n  dup4\n    /* \"#utility.yul\":133:140   */\n  dup6\n    /* \"#utility.yul\":129:152   */\n  sub\n    /* \"#utility.yul\":125:157   */\n  slt\n    /* \"#utility.yul\":122:124   */\n  iszero\n  tag_9\n  jumpi\n    /* \"#utility.yul\":175:181   */\n  dup2\n    /* \"#utility.yul\":167:173   */\n  dup3\n    /* \"#utility.yul\":160:182   */\n  revert\n    /* \"#utility.yul\":122:124   */\ntag_9:\n    /* \"#utility.yul\":203:219   */\n  dup3\n  mload\n    /* \"#utility.yul\":262:264   */\n  0x20\n    /* \"#utility.yul\":247:265   */\n  dup5\n  add\n    /* \"#utility.yul\":241:266   */\n  mload\n    /* \"#utility.yul\":203:219   */\n  swap1\n  swap3\n  pop\n  sub(shl(0xa0, 0x01), 0x01)\n    /* \"#utility.yul\":295:326   */\n  dup2\n  and\n    /* \"#utility.yul\":285:327   */\n  dup2\n  eq\n    /* \"#utility.yul\":275:277   */\n  tag_10\n  jumpi\n    /* \"#utility.yul\":346:352   */\n  dup2\n    /* \"#utility.yul\":338:344   */\n  dup3\n    /* \"#utility.yul\":331:353   */\n  revert\n    /* \"#utility.yul\":275:277   */\ntag_10:\n    /* \"#utility.yul\":374:379   */\n  dup1\n    /* \"#utility.yul\":364:379   */\n  swap2\n  pop\n  pop\n    /* \"#utility.yul\":112:385   */\n  swap3\n  pop\n  swap3\n  swap1\n  pop\n  jump\t// out\ntag_7:\n    /* \"Campaign.sol\":397:2272  contract Campaign {... */\n  dataSize(sub_0)\n  dup1\n  dataOffset(sub_0)\n  0x00\n  codecopy\n  0x00\n  return\nstop\n\nsub_0: assembly {\n        /* \"Campaign.sol\":397:2272  contract Campaign {... */\n      mstore(0x40, 0x80)\n      jumpi(tag_1, lt(calldatasize, 0x04))\n      shr(0xe0, calldataload(0x00))\n      dup1\n      0x8813ce12\n      gt\n      tag_13\n      jumpi\n      dup1\n      0x8813ce12\n      eq\n      tag_7\n      jumpi\n      dup1\n      0x8a9cfd55\n      eq\n      tag_8\n      jumpi\n      dup1\n      0xa7f33715\n      eq\n      tag_9\n      jumpi\n      dup1\n      0xb2548ecc\n      eq\n      tag_10\n      jumpi\n      dup1\n      0xd7bb99ba\n      eq\n      tag_11\n      jumpi\n      dup1\n      0xd7d1bbdb\n      eq\n      tag_12\n      jumpi\n      jump(tag_1)\n    tag_13:\n      dup1\n      0x03441006\n      eq\n      tag_2\n      jumpi\n      dup1\n      0x0a144391\n      eq\n      tag_3\n      jumpi\n      dup1\n      0x481c6a75\n      eq\n      tag_4\n      jumpi\n      dup1\n      0x81d12c58\n      eq\n      tag_5\n      jumpi\n      dup1\n      0x82fde093\n      eq\n      tag_6\n      jumpi\n    tag_1:\n      0x00\n      dup1\n      revert\n        /* \"Campaign.sol\":1989:2269  function finalizeRequest(uint index) public onlyManager{... */\n    tag_2:\n      callvalue\n      dup1\n      iszero\n      tag_14\n      jumpi\n      0x00\n      dup1\n      revert\n    tag_14:\n      pop\n      tag_15\n      tag_16\n      calldatasize\n      0x04\n      tag_17\n      jump\t// in\n    tag_16:\n      tag_18\n      jump\t// in\n    tag_15:\n      stop\n        /* \"Campaign.sol\":662:704  mapping (address => bool) public approvers */\n    tag_3:\n      callvalue\n      dup1\n      iszero\n      tag_19\n      jumpi\n      0x00\n      dup1\n      revert\n    tag_19:\n      pop\n      tag_20\n      tag_21\n      calldatasize\n      0x04\n      tag_22\n      jump\t// in\n    tag_21:\n      tag_23\n      jump\t// in\n    tag_20:\n      mload(0x40)\n      tag_24\n      swap2\n      swap1\n      tag_25\n      jump\t// in\n    tag_24:\n      mload(0x40)\n      dup1\n      swap2\n      sub\n      swap1\n      return\n        /* \"Campaign.sol\":601:623  address public manager */\n    tag_4:\n      callvalue\n      dup1\n      iszero\n      tag_26\n      jumpi\n      0x00\n      dup1\n      revert\n    tag_26:\n      pop\n      tag_27\n      tag_28\n      jump\t// in\n    tag_27:\n      mload(0x40)\n      tag_24\n      swap2\n      swap1\n      tag_30\n      jump\t// in\n        /* \"Campaign.sol\":738:763  Request[] public requests */\n    tag_5:\n      callvalue\n      dup1\n      iszero\n      tag_31\n      jumpi\n      0x00\n      dup1\n      revert\n    tag_31:\n      pop\n      tag_32\n      tag_33\n      calldatasize\n      0x04\n      tag_17\n      jump\t// in\n    tag_33:\n      tag_34\n      jump\t// in\n    tag_32:\n      mload(0x40)\n      tag_24\n      swap6\n      swap5\n      swap4\n      swap3\n      swap2\n      swap1\n      tag_36\n      jump\t// in\n        /* \"Campaign.sol\":708:734  uint public approversCount */\n    tag_6:\n      callvalue\n      dup1\n      iszero\n      tag_37\n      jumpi\n      0x00\n      dup1\n      revert\n    tag_37:\n      pop\n      tag_38\n      tag_39\n      jump\t// in\n    tag_38:\n      mload(0x40)\n      tag_24\n      swap2\n      swap1\n      tag_41\n      jump\t// in\n        /* \"Campaign.sol\":1424:1511  function getRequests() public view returns(Request[] memory) {... */\n    tag_7:\n      callvalue\n      dup1\n      iszero\n      tag_42\n      jumpi\n      0x00\n      dup1\n      revert\n    tag_42:\n      pop\n      tag_43\n      tag_44\n      jump\t// in\n    tag_43:\n      mload(0x40)\n      tag_24\n      swap2\n      swap1\n      tag_46\n      jump\t// in\n        /* \"Campaign.sol\":1515:1808  function createRequest(string memory description, uint value, address recipient) public onlyManager{... */\n    tag_8:\n      callvalue\n      dup1\n      iszero\n      tag_47\n      jumpi\n      0x00\n      dup1\n      revert\n    tag_47:\n      pop\n      tag_15\n      tag_49\n      calldatasize\n      0x04\n      tag_50\n      jump\t// in\n    tag_49:\n      tag_51\n      jump\t// in\n        /* \"Campaign.sol\":627:658  uint public minimunContribution */\n    tag_9:\n      callvalue\n      dup1\n      iszero\n      tag_52\n      jumpi\n      0x00\n      dup1\n      revert\n    tag_52:\n      pop\n      tag_38\n      tag_54\n      jump\t// in\n        /* \"Campaign.sol\":1204:1420  function getBasicData() public view returns(uint, uint, uint, uint, address){... */\n    tag_10:\n      callvalue\n      dup1\n      iszero\n      tag_56\n      jumpi\n      0x00\n      dup1\n      revert\n    tag_56:\n      pop\n      tag_57\n      tag_58\n      jump\t// in\n    tag_57:\n      mload(0x40)\n      tag_24\n      swap6\n      swap5\n      swap4\n      swap3\n      swap2\n      swap1\n      tag_60\n      jump\t// in\n        /* \"Campaign.sol\":1056:1200  function contribute() public payable{... */\n    tag_11:\n      tag_15\n      tag_62\n      jump\t// in\n        /* \"Campaign.sol\":1812:1985  function approveRequest(uint index) public isApprover{... */\n    tag_12:\n      callvalue\n      dup1\n      iszero\n      tag_63\n      jumpi\n      0x00\n      dup1\n      revert\n    tag_63:\n      pop\n      tag_15\n      tag_65\n      calldatasize\n      0x04\n      tag_17\n      jump\t// in\n    tag_65:\n      tag_66\n      jump\t// in\n        /* \"Campaign.sol\":1989:2269  function finalizeRequest(uint index) public onlyManager{... */\n    tag_18:\n        /* \"Campaign.sol\":944:951  manager */\n      and(sub(shl(0xa0, 0x01), 0x01), sload(0x01))\n        /* \"Campaign.sol\":930:940  msg.sender */\n      caller\n        /* \"Campaign.sol\":930:951  msg.sender == manager */\n      eq\n        /* \"Campaign.sol\":922:952  require(msg.sender == manager) */\n      tag_68\n      jumpi\n      0x00\n      dup1\n      revert\n    tag_68:\n        /* \"Campaign.sol\":2050:2073  Request storage request */\n      0x00\n        /* \"Campaign.sol\":2076:2084  requests */\n      0x05\n        /* \"Campaign.sol\":2085:2090  index */\n      dup3\n        /* \"Campaign.sol\":2076:2091  requests[index] */\n      dup2\n      sload\n      dup2\n      lt\n      tag_70\n      jumpi\n      mstore(0x00, shl(0xe0, 0x4e487b71))\n      mstore(0x04, 0x32)\n      revert(0x00, 0x24)\n    tag_70:\n      swap1\n      0x00\n      mstore\n      keccak256(0x00, 0x20)\n      swap1\n      0x04\n      mul\n      add\n        /* \"Campaign.sol\":2050:2091  Request storage request = requests[index] */\n      swap1\n      pop\n        /* \"Campaign.sol\":2106:2113  request */\n      dup1\n        /* \"Campaign.sol\":2106:2122  request.complete */\n      0x02\n      add\n      0x14\n      swap1\n      sload\n      swap1\n      0x0100\n      exp\n      swap1\n      div\n      0xff\n      and\n        /* \"Campaign.sol\":2105:2122  !request.complete */\n      iszero\n        /* \"Campaign.sol\":2097:2123  require(!request.complete) */\n      tag_72\n      jumpi\n      0x00\n      dup1\n      revert\n    tag_72:\n        /* \"Campaign.sol\":2176:2177  2 */\n      0x02\n        /* \"Campaign.sol\":2161:2175  approversCount */\n      sload(0x04)\n        /* \"Campaign.sol\":2161:2177  approversCount/2 */\n      tag_73\n      swap2\n      swap1\n      tag_74\n      jump\t// in\n    tag_73:\n        /* \"Campaign.sol\":2137:2144  request */\n      dup2\n        /* \"Campaign.sol\":2137:2158  request.approvedCount */\n      0x03\n      add\n      sload\n        /* \"Campaign.sol\":2137:2177  request.approvedCount > approversCount/2 */\n      gt\n        /* \"Campaign.sol\":2129:2178  require(request.approvedCount > approversCount/2) */\n      tag_75\n      jumpi\n      0x00\n      dup1\n      revert\n    tag_75:\n        /* \"Campaign.sol\":2193:2210  request.recipient */\n      0x02\n      dup2\n      add\n      sload\n      0x01\n        /* \"Campaign.sol\":2221:2234  request.value */\n      dup3\n      add\n      sload\n        /* \"Campaign.sol\":2185:2235  payable(request.recipient).transfer(request.value) */\n      mload(0x40)\n      sub(shl(0xa0, 0x01), 0x01)\n        /* \"Campaign.sol\":2193:2210  request.recipient */\n      swap1\n      swap3\n      and\n      swap2\n        /* \"Campaign.sol\":2185:2235  payable(request.recipient).transfer(request.value) */\n      0x08fc\n      dup3\n      iszero\n      mul\n      swap2\n        /* \"Campaign.sol\":2221:2234  request.value */\n      swap1\n        /* \"Campaign.sol\":2193:2210  request.recipient */\n      0x00\n        /* \"Campaign.sol\":2185:2235  payable(request.recipient).transfer(request.value) */\n      dup2\n        /* \"Campaign.sol\":2193:2210  request.recipient */\n      dup2\n        /* \"Campaign.sol\":2185:2235  payable(request.recipient).transfer(request.value) */\n      dup2\n        /* \"Campaign.sol\":2221:2234  request.value */\n      dup6\n        /* \"Campaign.sol\":2193:2210  request.recipient */\n      dup9\n        /* \"Campaign.sol\":2185:2235  payable(request.recipient).transfer(request.value) */\n      dup9\n      call\n      swap4\n      pop\n      pop\n      pop\n      pop\n      iszero\n      dup1\n      iszero\n      tag_77\n      jumpi\n      returndatasize\n      0x00\n      dup1\n      returndatacopy\n      revert(0x00, returndatasize)\n    tag_77:\n      pop\n        /* \"Campaign.sol\":2241:2257  request.complete */\n      0x02\n      add\n        /* \"Campaign.sol\":2241:2264  request.complete = true */\n      dup1\n      sload\n      not(shl(0xa0, 0xff))\n      and\n      shl(0xa0, 0x01)\n      or\n      swap1\n      sstore\n      pop\n        /* \"Campaign.sol\":1989:2269  function finalizeRequest(uint index) public onlyManager{... */\n      jump\t// out\n        /* \"Campaign.sol\":662:704  mapping (address => bool) public approvers */\n    tag_23:\n      mstore(0x20, 0x03)\n      0x00\n      swap1\n      dup2\n      mstore\n      0x40\n      swap1\n      keccak256\n      sload\n      0xff\n      and\n      dup2\n      jump\t// out\n        /* \"Campaign.sol\":601:623  address public manager */\n    tag_28:\n      and(sub(shl(0xa0, 0x01), 0x01), sload(0x01))\n      dup2\n      jump\t// out\n        /* \"Campaign.sol\":738:763  Request[] public requests */\n    tag_34:\n      0x05\n      dup2\n      dup2\n      sload\n      dup2\n      lt\n      tag_78\n      jumpi\n      0x00\n      dup1\n      revert\n    tag_78:\n      swap1\n      0x00\n      mstore\n      keccak256(0x00, 0x20)\n      swap1\n      0x04\n      mul\n      add\n      0x00\n      swap2\n      pop\n      swap1\n      pop\n      dup1\n      0x00\n      add\n      dup1\n      sload\n      tag_80\n      swap1\n      tag_81\n      jump\t// in\n    tag_80:\n      dup1\n      0x1f\n      add\n      0x20\n      dup1\n      swap2\n      div\n      mul\n      0x20\n      add\n      mload(0x40)\n      swap1\n      dup2\n      add\n      0x40\n      mstore\n      dup1\n      swap3\n      swap2\n      swap1\n      dup2\n      dup2\n      mstore\n      0x20\n      add\n      dup3\n      dup1\n      sload\n      tag_82\n      swap1\n      tag_81\n      jump\t// in\n    tag_82:\n      dup1\n      iszero\n      tag_83\n      jumpi\n      dup1\n      0x1f\n      lt\n      tag_84\n      jumpi\n      0x0100\n      dup1\n      dup4\n      sload\n      div\n      mul\n      dup4\n      mstore\n      swap2\n      0x20\n      add\n      swap2\n      jump(tag_83)\n    tag_84:\n      dup3\n      add\n      swap2\n      swap1\n      0x00\n      mstore\n      keccak256(0x00, 0x20)\n      swap1\n    tag_85:\n      dup2\n      sload\n      dup2\n      mstore\n      swap1\n      0x01\n      add\n      swap1\n      0x20\n      add\n      dup1\n      dup4\n      gt\n      tag_85\n      jumpi\n      dup3\n      swap1\n      sub\n      0x1f\n      and\n      dup3\n      add\n      swap2\n    tag_83:\n      pop\n      pop\n      pop\n      pop\n      0x01\n      dup4\n      add\n      sload\n      0x02\n      dup5\n      add\n      sload\n      0x03\n      swap1\n      swap5\n      add\n      sload\n      swap3\n      swap4\n      swap1\n      swap3\n      sub(shl(0xa0, 0x01), 0x01)\n      dup3\n      and\n      swap3\n      pop\n      shl(0xa0, 0x01)\n      swap1\n      swap2\n      div\n      0xff\n      and\n      swap1\n      dup6\n      jump\t// out\n        /* \"Campaign.sol\":708:734  uint public approversCount */\n    tag_39:\n      sload(0x04)\n      dup2\n      jump\t// out\n        /* \"Campaign.sol\":1424:1511  function getRequests() public view returns(Request[] memory) {... */\n    tag_44:\n        /* \"Campaign.sol\":1467:1483  Request[] memory */\n      0x60\n        /* \"Campaign.sol\":1498:1506  requests */\n      0x05\n        /* \"Campaign.sol\":1491:1506  return requests */\n      dup1\n      sload\n      dup1\n      0x20\n      mul\n      0x20\n      add\n      mload(0x40)\n      swap1\n      dup2\n      add\n      0x40\n      mstore\n      dup1\n      swap3\n      swap2\n      swap1\n      dup2\n      dup2\n      mstore\n      0x20\n      add\n      0x00\n      swap1\n    tag_87:\n      dup3\n      dup3\n      lt\n      iszero\n      tag_88\n      jumpi\n      dup4\n      dup3\n      swap1\n      0x00\n      mstore\n      keccak256(0x00, 0x20)\n      swap1\n      0x04\n      mul\n      add\n      mload(0x40)\n      dup1\n      0xa0\n      add\n      0x40\n      mstore\n      swap1\n      dup2\n      0x00\n      dup3\n      add\n      dup1\n      sload\n      tag_90\n      swap1\n      tag_81\n      jump\t// in\n    tag_90:\n      dup1\n      0x1f\n      add\n      0x20\n      dup1\n      swap2\n      div\n      mul\n      0x20\n      add\n      mload(0x40)\n      swap1\n      dup2\n      add\n      0x40\n      mstore\n      dup1\n      swap3\n      swap2\n      swap1\n      dup2\n      dup2\n      mstore\n      0x20\n      add\n      dup3\n      dup1\n      sload\n      tag_91\n      swap1\n      tag_81\n      jump\t// in\n    tag_91:\n      dup1\n      iszero\n      tag_92\n      jumpi\n      dup1\n      0x1f\n      lt\n      tag_93\n      jumpi\n      0x0100\n      dup1\n      dup4\n      sload\n      div\n      mul\n      dup4\n      mstore\n      swap2\n      0x20\n      add\n      swap2\n      jump(tag_92)\n    tag_93:\n      dup3\n      add\n      swap2\n      swap1\n      0x00\n      mstore\n      keccak256(0x00, 0x20)\n      swap1\n    tag_94:\n      dup2\n      sload\n      dup2\n      mstore\n      swap1\n      0x01\n      add\n      swap1\n      0x20\n      add\n      dup1\n      dup4\n      gt\n      tag_94\n      jumpi\n      dup3\n      swap1\n      sub\n      0x1f\n      and\n      dup3\n      add\n      swap2\n    tag_92:\n      pop\n      pop\n      pop\n      swap2\n      dup4\n      mstore\n      pop\n      pop\n      0x01\n      dup3\n      dup2\n      add\n      sload\n      0x20\n      dup1\n      dup5\n      add\n      swap2\n      swap1\n      swap2\n      mstore\n      0x02\n      dup5\n      add\n      sload\n      sub(shl(0xa0, 0x01), 0x01)\n      dup2\n      and\n      0x40\n      dup6\n      add\n      mstore\n      shl(0xa0, 0x01)\n      swap1\n      div\n      0xff\n      and\n      iszero\n      iszero\n      0x60\n      dup5\n      add\n      mstore\n      0x03\n      swap1\n      swap4\n      add\n      sload\n      0x80\n      swap1\n      swap3\n      add\n      swap2\n      swap1\n      swap2\n      mstore\n      swap2\n      dup4\n      mstore\n      swap3\n      add\n      swap2\n      add\n      jump(tag_87)\n    tag_88:\n      pop\n      pop\n      pop\n      pop\n      swap1\n      pop\n        /* \"Campaign.sol\":1424:1511  function getRequests() public view returns(Request[] memory) {... */\n      swap1\n      jump\t// out\n        /* \"Campaign.sol\":1515:1808  function createRequest(string memory description, uint value, address recipient) public onlyManager{... */\n    tag_51:\n        /* \"Campaign.sol\":944:951  manager */\n      and(sub(shl(0xa0, 0x01), 0x01), sload(0x01))\n        /* \"Campaign.sol\":930:940  msg.sender */\n      caller\n        /* \"Campaign.sol\":930:951  msg.sender == manager */\n      eq\n        /* \"Campaign.sol\":922:952  require(msg.sender == manager) */\n      tag_96\n      jumpi\n      0x00\n      dup1\n      revert\n    tag_96:\n        /* \"Campaign.sol\":1639:1781  Request({... */\n      0x40\n      dup1\n      mload\n      0xa0\n      dup2\n      add\n      dup3\n      mstore\n      dup5\n      dup2\n      mstore\n      0x20\n      dup1\n      dup3\n      add\n      dup6\n      swap1\n      mstore\n      sub(shl(0xa0, 0x01), 0x01)\n      dup5\n      and\n      swap3\n      dup3\n      add\n      swap3\n      swap1\n      swap3\n      mstore\n      0x00\n      0x60\n      dup3\n      add\n      dup2\n      swap1\n      mstore\n      0x80\n      dup3\n      add\n      dup2\n      swap1\n      mstore\n        /* \"Campaign.sol\":1787:1795  requests */\n      0x05\n        /* \"Campaign.sol\":1787:1803  requests.push(x) */\n      dup1\n      sload\n      0x01\n      dup2\n      add\n      dup3\n      sstore\n      swap2\n      mstore\n      dup2\n      mload\n      dup1\n      mload\n        /* \"Campaign.sol\":1639:1781  Request({... */\n      swap3\n      swap4\n      dup5\n      swap4\n        /* \"Campaign.sol\":1787:1803  requests.push(x) */\n      0x04\n      swap1\n      swap4\n      mul\n      0x036b6384b5eca791c62761152d0c79bb0604c104a5fb6f4eb0703f3154bb3db0\n      add\n      swap3\n      tag_99\n      swap3\n      dup5\n      swap3\n      add\n      swap1\n      tag_100\n      jump\t// in\n    tag_99:\n      pop\n      0x20\n      dup3\n      add\n      mload\n      0x01\n      dup3\n      add\n      sstore\n      0x40\n      dup3\n      add\n      mload\n      0x02\n      dup3\n      add\n      dup1\n      sload\n      0x60\n      dup6\n      add\n      mload\n      iszero\n      iszero\n      shl(0xa0, 0x01)\n      mul\n      not(shl(0xa0, 0xff))\n      sub(shl(0xa0, 0x01), 0x01)\n      swap1\n      swap5\n      and\n      not(sub(shl(0xa0, 0x01), 0x01))\n      swap1\n      swap3\n      and\n      swap2\n      swap1\n      swap2\n      or\n      swap3\n      swap1\n      swap3\n      and\n      swap2\n      swap1\n      swap2\n      or\n      swap1\n      sstore\n      0x80\n      swap1\n      swap2\n      add\n      mload\n      0x03\n      swap1\n      swap2\n      add\n      sstore\n      pop\n      pop\n      pop\n      pop\n        /* \"Campaign.sol\":1515:1808  function createRequest(string memory description, uint value, address recipient) public onlyManager{... */\n      jump\t// out\n        /* \"Campaign.sol\":627:658  uint public minimunContribution */\n    tag_54:\n      sload(0x02)\n      dup2\n      jump\t// out\n        /* \"Campaign.sol\":1204:1420  function getBasicData() public view returns(uint, uint, uint, uint, address){... */\n    tag_58:\n        /* \"Campaign.sol\":1301:1320  minimunContribution */\n      sload(0x02)\n        /* \"Campaign.sol\":1357:1365  requests */\n      0x05\n        /* \"Campaign.sol\":1357:1372  requests.length */\n      sload\n        /* \"Campaign.sol\":1380:1394  approversCount */\n      sload(0x04)\n        /* \"Campaign.sol\":1402:1409  manager */\n      sload(0x01)\n        /* \"Campaign.sol\":1301:1320  minimunContribution */\n      swap3\n      swap4\n        /* \"Campaign.sol\":1328:1349  address(this).balance */\n      selfbalance\n      swap4\n      sub(shl(0xa0, 0x01), 0x01)\n        /* \"Campaign.sol\":1402:1409  manager */\n      and\n      swap1\n        /* \"Campaign.sol\":1204:1420  function getBasicData() public view returns(uint, uint, uint, uint, address){... */\n      jump\t// out\n        /* \"Campaign.sol\":1056:1200  function contribute() public payable{... */\n    tag_62:\n        /* \"Campaign.sol\":1119:1138  minimunContribution */\n      sload(0x02)\n        /* \"Campaign.sol\":1106:1115  msg.value */\n      callvalue\n        /* \"Campaign.sol\":1106:1138  msg.value >= minimunContribution */\n      lt\n      iszero\n        /* \"Campaign.sol\":1098:1139  require(msg.value >= minimunContribution) */\n      tag_103\n      jumpi\n      0x00\n      dup1\n      revert\n    tag_103:\n        /* \"Campaign.sol\":1155:1165  msg.sender */\n      caller\n        /* \"Campaign.sol\":1145:1166  approvers[msg.sender] */\n      0x00\n      swap1\n      dup2\n      mstore\n        /* \"Campaign.sol\":1145:1154  approvers */\n      0x03\n        /* \"Campaign.sol\":1145:1166  approvers[msg.sender] */\n      0x20\n      mstore\n      0x40\n      dup2\n      keccak256\n        /* \"Campaign.sol\":1145:1173  approvers[msg.sender] = true */\n      dup1\n      sload\n      not(0xff)\n      and\n        /* \"Campaign.sol\":1169:1173  true */\n      0x01\n        /* \"Campaign.sol\":1145:1173  approvers[msg.sender] = true */\n      or\n      swap1\n      sstore\n        /* \"Campaign.sol\":1179:1193  approversCount */\n      0x04\n        /* \"Campaign.sol\":1179:1195  approversCount++ */\n      dup1\n      sload\n      swap2\n      tag_104\n      dup4\n      tag_105\n      jump\t// in\n    tag_104:\n      swap2\n      swap1\n      pop\n      sstore\n      pop\n        /* \"Campaign.sol\":1056:1200  function contribute() public payable{... */\n      jump\t// out\n        /* \"Campaign.sol\":1812:1985  function approveRequest(uint index) public isApprover{... */\n    tag_66:\n        /* \"Campaign.sol\":1012:1022  msg.sender */\n      caller\n        /* \"Campaign.sol\":1002:1023  approvers[msg.sender] */\n      0x00\n      swap1\n      dup2\n      mstore\n        /* \"Campaign.sol\":1002:1011  approvers */\n      0x03\n        /* \"Campaign.sol\":1002:1023  approvers[msg.sender] */\n      0x20\n      mstore\n      0x40\n      swap1\n      keccak256\n      sload\n      0xff\n      and\n        /* \"Campaign.sol\":994:1024  require(approvers[msg.sender]) */\n      tag_107\n      jumpi\n      0x00\n      dup1\n      revert\n    tag_107:\n        /* \"Campaign.sol\":1880:1885  votes */\n      0x00\n        /* \"Campaign.sol\":1880:1892  votes[index] */\n      dup2\n      dup2\n      mstore\n      0x20\n      dup2\n      dup2\n      mstore\n      0x40\n      dup1\n      dup4\n      keccak256\n        /* \"Campaign.sol\":1893:1903  msg.sender */\n      caller\n        /* \"Campaign.sol\":1880:1904  votes[index][msg.sender] */\n      dup5\n      mstore\n      swap1\n      swap2\n      mstore\n      swap1\n      keccak256\n      sload\n      0xff\n      and\n        /* \"Campaign.sol\":1879:1904  !votes[index][msg.sender] */\n      iszero\n        /* \"Campaign.sol\":1871:1905  require(!votes[index][msg.sender]) */\n      tag_109\n      jumpi\n      0x00\n      dup1\n      revert\n    tag_109:\n        /* \"Campaign.sol\":1912:1917  votes */\n      0x00\n        /* \"Campaign.sol\":1912:1924  votes[index] */\n      dup2\n      dup2\n      mstore\n      0x20\n      dup2\n      dup2\n      mstore\n      0x40\n      dup1\n      dup4\n      keccak256\n        /* \"Campaign.sol\":1925:1935  msg.sender */\n      caller\n        /* \"Campaign.sol\":1912:1936  votes[index][msg.sender] */\n      dup5\n      mstore\n      swap1\n      swap2\n      mstore\n      swap1\n      keccak256\n        /* \"Campaign.sol\":1912:1943  votes[index][msg.sender] = true */\n      dup1\n      sload\n      not(0xff)\n      and\n        /* \"Campaign.sol\":1939:1943  true */\n      0x01\n        /* \"Campaign.sol\":1912:1943  votes[index][msg.sender] = true */\n      or\n      swap1\n      sstore\n        /* \"Campaign.sol\":1949:1957  requests */\n      0x05\n        /* \"Campaign.sol\":1949:1964  requests[index] */\n      dup1\n      sload\n        /* \"Campaign.sol\":1918:1923  index */\n      dup3\n      swap1\n        /* \"Campaign.sol\":1949:1964  requests[index] */\n      dup2\n      lt\n      tag_110\n      jumpi\n      mstore(0x00, shl(0xe0, 0x4e487b71))\n      mstore(0x04, 0x32)\n      revert(0x00, 0x24)\n    tag_110:\n      0x00\n      swap2\n      dup3\n      mstore\n      0x20\n      dup3\n      keccak256\n        /* \"Campaign.sol\":1949:1978  requests[index].approvedCount */\n      0x03\n        /* \"Campaign.sol\":1949:1964  requests[index] */\n      0x04\n      swap1\n      swap3\n      mul\n      add\n        /* \"Campaign.sol\":1949:1978  requests[index].approvedCount */\n      add\n        /* \"Campaign.sol\":1949:1980  requests[index].approvedCount++ */\n      dup1\n      sload\n      swap2\n      tag_112\n      dup4\n      tag_105\n      jump\t// in\n    tag_112:\n      swap2\n      swap1\n      pop\n      sstore\n      pop\n        /* \"Campaign.sol\":1812:1985  function approveRequest(uint index) public isApprover{... */\n      pop\n      jump\t// out\n    tag_100:\n      dup3\n      dup1\n      sload\n      tag_113\n      swap1\n      tag_81\n      jump\t// in\n    tag_113:\n      swap1\n      0x00\n      mstore\n      keccak256(0x00, 0x20)\n      swap1\n      0x1f\n      add\n      0x20\n      swap1\n      div\n      dup2\n      add\n      swap3\n      dup3\n      tag_115\n      jumpi\n      0x00\n      dup6\n      sstore\n      jump(tag_118)\n    tag_115:\n      dup3\n      0x1f\n      lt\n      tag_116\n      jumpi\n      dup1\n      mload\n      not(0xff)\n      and\n      dup4\n      dup1\n      add\n      or\n      dup6\n      sstore\n      jump(tag_118)\n    tag_116:\n      dup3\n      dup1\n      add\n      0x01\n      add\n      dup6\n      sstore\n      dup3\n      iszero\n      tag_118\n      jumpi\n      swap2\n      dup3\n      add\n    tag_117:\n      dup3\n      dup2\n      gt\n      iszero\n      tag_118\n      jumpi\n      dup3\n      mload\n      dup3\n      sstore\n      swap2\n      0x20\n      add\n      swap2\n      swap1\n      0x01\n      add\n      swap1\n      jump(tag_117)\n    tag_118:\n      pop\n      tag_119\n      swap3\n      swap2\n      pop\n      tag_120\n      jump\t// in\n    tag_119:\n      pop\n      swap1\n      jump\t// out\n    tag_120:\n    tag_121:\n      dup1\n      dup3\n      gt\n      iszero\n      tag_119\n      jumpi\n      0x00\n      dup2\n      sstore\n      0x01\n      add\n      jump(tag_121)\n        /* \"#utility.yul\":14:189   */\n    tag_124:\n        /* \"#utility.yul\":84:104   */\n      dup1\n      calldataload\n      sub(shl(0xa0, 0x01), 0x01)\n        /* \"#utility.yul\":133:164   */\n      dup2\n      and\n        /* \"#utility.yul\":123:165   */\n      dup2\n      eq\n        /* \"#utility.yul\":113:115   */\n      tag_126\n      jumpi\n        /* \"#utility.yul\":179:180   */\n      0x00\n        /* \"#utility.yul\":176:177   */\n      dup1\n        /* \"#utility.yul\":169:181   */\n      revert\n        /* \"#utility.yul\":113:115   */\n    tag_126:\n        /* \"#utility.yul\":65:189   */\n      swap2\n      swap1\n      pop\n      jump\t// out\n        /* \"#utility.yul\":194:392   */\n    tag_22:\n      0x00\n        /* \"#utility.yul\":306:308   */\n      0x20\n        /* \"#utility.yul\":294:303   */\n      dup3\n        /* \"#utility.yul\":285:292   */\n      dup5\n        /* \"#utility.yul\":281:304   */\n      sub\n        /* \"#utility.yul\":277:309   */\n      slt\n        /* \"#utility.yul\":274:276   */\n      iszero\n      tag_128\n      jumpi\n        /* \"#utility.yul\":327:333   */\n      dup1\n        /* \"#utility.yul\":319:325   */\n      dup2\n        /* \"#utility.yul\":312:334   */\n      revert\n        /* \"#utility.yul\":274:276   */\n    tag_128:\n        /* \"#utility.yul\":355:386   */\n      tag_129\n        /* \"#utility.yul\":376:385   */\n      dup3\n        /* \"#utility.yul\":355:386   */\n      tag_124\n      jump\t// in\n    tag_129:\n        /* \"#utility.yul\":345:386   */\n      swap4\n        /* \"#utility.yul\":264:392   */\n      swap3\n      pop\n      pop\n      pop\n      jump\t// out\n        /* \"#utility.yul\":397:1501   */\n    tag_50:\n      0x00\n      dup1\n      0x00\n        /* \"#utility.yul\":553:555   */\n      0x60\n        /* \"#utility.yul\":541:550   */\n      dup5\n        /* \"#utility.yul\":532:539   */\n      dup7\n        /* \"#utility.yul\":528:551   */\n      sub\n        /* \"#utility.yul\":524:556   */\n      slt\n        /* \"#utility.yul\":521:523   */\n      iszero\n      tag_131\n      jumpi\n        /* \"#utility.yul\":574:580   */\n      dup2\n        /* \"#utility.yul\":566:572   */\n      dup3\n        /* \"#utility.yul\":559:581   */\n      revert\n        /* \"#utility.yul\":521:523   */\n    tag_131:\n        /* \"#utility.yul\":619:628   */\n      dup4\n        /* \"#utility.yul\":606:629   */\n      calldataload\n        /* \"#utility.yul\":648:666   */\n      0xffffffffffffffff\n        /* \"#utility.yul\":689:691   */\n      dup1\n        /* \"#utility.yul\":681:687   */\n      dup3\n        /* \"#utility.yul\":678:692   */\n      gt\n        /* \"#utility.yul\":675:677   */\n      iszero\n      tag_132\n      jumpi\n        /* \"#utility.yul\":710:716   */\n      dup4\n        /* \"#utility.yul\":702:708   */\n      dup5\n        /* \"#utility.yul\":695:717   */\n      revert\n        /* \"#utility.yul\":675:677   */\n    tag_132:\n        /* \"#utility.yul\":753:759   */\n      dup2\n        /* \"#utility.yul\":742:751   */\n      dup7\n        /* \"#utility.yul\":738:760   */\n      add\n        /* \"#utility.yul\":728:760   */\n      swap2\n      pop\n        /* \"#utility.yul\":798:805   */\n      dup7\n        /* \"#utility.yul\":791:795   */\n      0x1f\n        /* \"#utility.yul\":787:789   */\n      dup4\n        /* \"#utility.yul\":783:796   */\n      add\n        /* \"#utility.yul\":779:806   */\n      slt\n        /* \"#utility.yul\":769:771   */\n      tag_133\n      jumpi\n        /* \"#utility.yul\":825:831   */\n      dup4\n        /* \"#utility.yul\":817:823   */\n      dup5\n        /* \"#utility.yul\":810:832   */\n      revert\n        /* \"#utility.yul\":769:771   */\n    tag_133:\n        /* \"#utility.yul\":866:868   */\n      dup2\n        /* \"#utility.yul\":853:869   */\n      calldataload\n        /* \"#utility.yul\":888:892   */\n      0x20\n        /* \"#utility.yul\":911:913   */\n      dup3\n        /* \"#utility.yul\":907:909   */\n      dup3\n        /* \"#utility.yul\":904:914   */\n      gt\n        /* \"#utility.yul\":901:903   */\n      iszero\n      tag_135\n      jumpi\n        /* \"#utility.yul\":917:935   */\n      tag_135\n      tag_136\n      jump\t// in\n    tag_135:\n        /* \"#utility.yul\":966:968   */\n      0x40\n        /* \"#utility.yul\":960:969   */\n      mload\n      not(0x1f)\n        /* \"#utility.yul\":1035:1037   */\n      0x1f\n        /* \"#utility.yul\":1016:1029   */\n      dup5\n      add\n        /* \"#utility.yul\":1012:1039   */\n      and\n        /* \"#utility.yul\":1000:1040   */\n      dup2\n      add\n        /* \"#utility.yul\":996:1045   */\n      dup3\n      add\n        /* \"#utility.yul\":1080:1102   */\n      dup2\n      dup2\n      lt\n        /* \"#utility.yul\":1060:1078   */\n      dup6\n      dup3\n      gt\n        /* \"#utility.yul\":1057:1103   */\n      or\n        /* \"#utility.yul\":1054:1056   */\n      iszero\n      tag_138\n      jumpi\n        /* \"#utility.yul\":1106:1124   */\n      tag_138\n      tag_136\n      jump\t// in\n    tag_138:\n        /* \"#utility.yul\":1142:1144   */\n      0x40\n        /* \"#utility.yul\":1135:1157   */\n      mstore\n        /* \"#utility.yul\":1166:1184   */\n      dup3\n      dup2\n      mstore\n        /* \"#utility.yul\":1203:1214   */\n      dup5\n      dup4\n      add\n        /* \"#utility.yul\":1199:1219   */\n      dup3\n      add\n        /* \"#utility.yul\":1196:1229   */\n      dup11\n      lt\n        /* \"#utility.yul\":1193:1195   */\n      iszero\n      tag_139\n      jumpi\n        /* \"#utility.yul\":1247:1253   */\n      dup7\n        /* \"#utility.yul\":1239:1245   */\n      dup8\n        /* \"#utility.yul\":1232:1254   */\n      revert\n        /* \"#utility.yul\":1193:1195   */\n    tag_139:\n        /* \"#utility.yul\":1308:1310   */\n      dup3\n        /* \"#utility.yul\":1303:1305   */\n      dup3\n        /* \"#utility.yul\":1299:1301   */\n      dup7\n        /* \"#utility.yul\":1295:1306   */\n      add\n        /* \"#utility.yul\":1290:1292   */\n      dup4\n        /* \"#utility.yul\":1282:1288   */\n      dup4\n        /* \"#utility.yul\":1278:1293   */\n      add\n        /* \"#utility.yul\":1265:1311   */\n      calldatacopy\n        /* \"#utility.yul\":1331:1346   */\n      swap2\n      dup3\n      add\n        /* \"#utility.yul\":1327:1351   */\n      dup2\n      add\n        /* \"#utility.yul\":1320:1360   */\n      swap6\n      swap1\n      swap6\n      mstore\n        /* \"#utility.yul\":1335:1341   */\n      swap5\n      pop\n      pop\n      pop\n        /* \"#utility.yul\":1417:1435   */\n      swap1\n      dup4\n      add\n        /* \"#utility.yul\":1404:1436   */\n      calldataload\n      swap1\n        /* \"#utility.yul\":1455:1495   */\n      tag_140\n        /* \"#utility.yul\":1491:1493   */\n      0x40\n        /* \"#utility.yul\":1476:1494   */\n      dup6\n      add\n        /* \"#utility.yul\":1455:1495   */\n      tag_124\n      jump\t// in\n    tag_140:\n        /* \"#utility.yul\":1445:1495   */\n      swap1\n      pop\n        /* \"#utility.yul\":511:1501   */\n      swap3\n      pop\n      swap3\n      pop\n      swap3\n      jump\t// out\n        /* \"#utility.yul\":1506:1696   */\n    tag_17:\n      0x00\n        /* \"#utility.yul\":1618:1620   */\n      0x20\n        /* \"#utility.yul\":1606:1615   */\n      dup3\n        /* \"#utility.yul\":1597:1604   */\n      dup5\n        /* \"#utility.yul\":1593:1616   */\n      sub\n        /* \"#utility.yul\":1589:1621   */\n      slt\n        /* \"#utility.yul\":1586:1588   */\n      iszero\n      tag_142\n      jumpi\n        /* \"#utility.yul\":1639:1645   */\n      dup1\n        /* \"#utility.yul\":1631:1637   */\n      dup2\n        /* \"#utility.yul\":1624:1646   */\n      revert\n        /* \"#utility.yul\":1586:1588   */\n    tag_142:\n      pop\n        /* \"#utility.yul\":1667:1690   */\n      calldataload\n      swap2\n        /* \"#utility.yul\":1576:1696   */\n      swap1\n      pop\n      jump\t// out\n        /* \"#utility.yul\":1701:2179   */\n    tag_143:\n      0x00\n        /* \"#utility.yul\":1783:1788   */\n      dup2\n        /* \"#utility.yul\":1777:1789   */\n      mload\n        /* \"#utility.yul\":1810:1816   */\n      dup1\n        /* \"#utility.yul\":1805:1808   */\n      dup5\n        /* \"#utility.yul\":1798:1817   */\n      mstore\n        /* \"#utility.yul\":1835:1838   */\n      dup2\n        /* \"#utility.yul\":1847:2009   */\n    tag_145:\n        /* \"#utility.yul\":1861:1867   */\n      dup2\n        /* \"#utility.yul\":1858:1859   */\n      dup2\n        /* \"#utility.yul\":1855:1868   */\n      lt\n        /* \"#utility.yul\":1847:2009   */\n      iszero\n      tag_147\n      jumpi\n        /* \"#utility.yul\":1923:1927   */\n      0x20\n        /* \"#utility.yul\":1979:1992   */\n      dup2\n      dup6\n      add\n        /* \"#utility.yul\":1975:1997   */\n      dup2\n      add\n        /* \"#utility.yul\":1969:1998   */\n      mload\n        /* \"#utility.yul\":1951:1962   */\n      dup7\n      dup4\n      add\n        /* \"#utility.yul\":1947:1967   */\n      dup3\n      add\n        /* \"#utility.yul\":1940:1999   */\n      mstore\n        /* \"#utility.yul\":1876:1888   */\n      add\n        /* \"#utility.yul\":1847:2009   */\n      jump(tag_145)\n    tag_147:\n        /* \"#utility.yul\":2027:2033   */\n      dup2\n        /* \"#utility.yul\":2024:2025   */\n      dup2\n        /* \"#utility.yul\":2021:2034   */\n      gt\n        /* \"#utility.yul\":2018:2020   */\n      iszero\n      tag_148\n      jumpi\n        /* \"#utility.yul\":2093:2096   */\n      dup3\n        /* \"#utility.yul\":2086:2090   */\n      0x20\n        /* \"#utility.yul\":2077:2083   */\n      dup4\n        /* \"#utility.yul\":2072:2075   */\n      dup8\n        /* \"#utility.yul\":2068:2084   */\n      add\n        /* \"#utility.yul\":2064:2091   */\n      add\n        /* \"#utility.yul\":2057:2097   */\n      mstore\n        /* \"#utility.yul\":2018:2020   */\n    tag_148:\n      pop\n        /* \"#utility.yul\":2161:2163   */\n      0x1f\n        /* \"#utility.yul\":2140:2155   */\n      add\n      not(0x1f)\n        /* \"#utility.yul\":2136:2165   */\n      and\n        /* \"#utility.yul\":2127:2166   */\n      swap3\n      swap1\n      swap3\n      add\n        /* \"#utility.yul\":2168:2172   */\n      0x20\n        /* \"#utility.yul\":2123:2173   */\n      add\n      swap3\n        /* \"#utility.yul\":1753:2179   */\n      swap2\n      pop\n      pop\n      jump\t// out\n        /* \"#utility.yul\":2184:2387   */\n    tag_30:\n      sub(shl(0xa0, 0x01), 0x01)\n        /* \"#utility.yul\":2348:2380   */\n      swap2\n      swap1\n      swap2\n      and\n        /* \"#utility.yul\":2330:2381   */\n      dup2\n      mstore\n        /* \"#utility.yul\":2318:2320   */\n      0x20\n        /* \"#utility.yul\":2303:2321   */\n      add\n      swap1\n        /* \"#utility.yul\":2285:2387   */\n      jump\t// out\n        /* \"#utility.yul\":2392:3745   */\n    tag_46:\n        /* \"#utility.yul\":2609:2611   */\n      0x20\n        /* \"#utility.yul\":2661:2682   */\n      dup1\n      dup3\n      mstore\n        /* \"#utility.yul\":2731:2744   */\n      dup3\n      mload\n        /* \"#utility.yul\":2634:2652   */\n      dup3\n      dup3\n      add\n        /* \"#utility.yul\":2753:2775   */\n      dup2\n      swap1\n      mstore\n        /* \"#utility.yul\":2392:3745   */\n      0x00\n      swap2\n        /* \"#utility.yul\":2609:2611   */\n      swap1\n        /* \"#utility.yul\":2794:2796   */\n      0x40\n      swap1\n        /* \"#utility.yul\":2812:2830   */\n      dup2\n      dup6\n      add\n      swap1\n        /* \"#utility.yul\":2872:2887   */\n      dup1\n      dup5\n      mul\n        /* \"#utility.yul\":2857:2888   */\n      dup7\n      add\n        /* \"#utility.yul\":2853:2893   */\n      dup4\n      add\n        /* \"#utility.yul\":2916:2931   */\n      dup8\n      dup6\n      add\n        /* \"#utility.yul\":2392:3745   */\n      dup7\n        /* \"#utility.yul\":2962:3716   */\n    tag_151:\n        /* \"#utility.yul\":2976:2982   */\n      dup4\n        /* \"#utility.yul\":2973:2974   */\n      dup2\n        /* \"#utility.yul\":2970:2983   */\n      lt\n        /* \"#utility.yul\":2962:3716   */\n      iszero\n      tag_153\n      jumpi\n        /* \"#utility.yul\":3069:3071   */\n      0x3f\n        /* \"#utility.yul\":3065:3072   */\n      not\n        /* \"#utility.yul\":3053:3062   */\n      dup10\n        /* \"#utility.yul\":3045:3051   */\n      dup5\n        /* \"#utility.yul\":3041:3063   */\n      sub\n        /* \"#utility.yul\":3037:3073   */\n      add\n        /* \"#utility.yul\":3032:3035   */\n      dup6\n        /* \"#utility.yul\":3025:3074   */\n      mstore\n        /* \"#utility.yul\":3103:3109   */\n      dup2\n        /* \"#utility.yul\":3097:3110   */\n      mload\n        /* \"#utility.yul\":3133:3137   */\n      0xa0\n        /* \"#utility.yul\":3176:3178   */\n      dup2\n        /* \"#utility.yul\":3170:3179   */\n      mload\n        /* \"#utility.yul\":3207:3209   */\n      dup2\n        /* \"#utility.yul\":3199:3205   */\n      dup7\n        /* \"#utility.yul\":3192:3210   */\n      mstore\n        /* \"#utility.yul\":3237:3287   */\n      tag_154\n        /* \"#utility.yul\":3283:3285   */\n      dup3\n        /* \"#utility.yul\":3275:3281   */\n      dup8\n        /* \"#utility.yul\":3271:3286   */\n      add\n        /* \"#utility.yul\":3257:3269   */\n      dup3\n        /* \"#utility.yul\":3237:3287   */\n      tag_143\n      jump\t// in\n    tag_154:\n        /* \"#utility.yul\":3330:3341   */\n      dup11\n      dup5\n      add\n        /* \"#utility.yul\":3324:3342   */\n      mload\n        /* \"#utility.yul\":3307:3322   */\n      dup8\n      dup13\n      add\n        /* \"#utility.yul\":3300:3343   */\n      mstore\n        /* \"#utility.yul\":3390:3401   */\n      dup10\n      dup5\n      add\n        /* \"#utility.yul\":3384:3402   */\n      mload\n      sub(shl(0xa0, 0x01), 0x01)\n        /* \"#utility.yul\":3380:3424   */\n      and\n        /* \"#utility.yul\":3363:3378   */\n      dup11\n      dup9\n      add\n        /* \"#utility.yul\":3356:3425   */\n      mstore\n        /* \"#utility.yul\":3448:3452   */\n      0x60\n        /* \"#utility.yul\":3509:3520   */\n      dup1\n      dup6\n      add\n        /* \"#utility.yul\":3503:3521   */\n      mload\n        /* \"#utility.yul\":3496:3522   */\n      iszero\n        /* \"#utility.yul\":3489:3523   */\n      iszero\n        /* \"#utility.yul\":3472:3487   */\n      swap1\n      dup9\n      add\n        /* \"#utility.yul\":3465:3524   */\n      mstore\n        /* \"#utility.yul\":3547:3551   */\n      0x80\n        /* \"#utility.yul\":3594:3605   */\n      swap4\n      dup5\n      add\n        /* \"#utility.yul\":3588:3606   */\n      mload\n        /* \"#utility.yul\":3571:3586   */\n      swap4\n      swap1\n      swap7\n      add\n        /* \"#utility.yul\":3564:3607   */\n      swap3\n      swap1\n      swap3\n      mstore\n      pop\n      pop\n        /* \"#utility.yul\":3694:3706   */\n      swap4\n      dup7\n      add\n      swap4\n        /* \"#utility.yul\":3659:3674   */\n      swap1\n      dup7\n      add\n      swap1\n      0x01\n        /* \"#utility.yul\":2991:3000   */\n      add\n        /* \"#utility.yul\":2962:3716   */\n      jump(tag_151)\n    tag_153:\n      pop\n        /* \"#utility.yul\":3733:3739   */\n      swap1\n      swap9\n        /* \"#utility.yul\":2589:3745   */\n      swap8\n      pop\n      pop\n      pop\n      pop\n      pop\n      pop\n      pop\n      pop\n      jump\t// out\n        /* \"#utility.yul\":3750:3937   */\n    tag_25:\n        /* \"#utility.yul\":3915:3929   */\n      swap1\n      iszero\n        /* \"#utility.yul\":3908:3930   */\n      iszero\n        /* \"#utility.yul\":3890:3931   */\n      dup2\n      mstore\n        /* \"#utility.yul\":3878:3880   */\n      0x20\n        /* \"#utility.yul\":3863:3881   */\n      add\n      swap1\n        /* \"#utility.yul\":3845:3937   */\n      jump\t// out\n        /* \"#utility.yul\":3942:4487   */\n    tag_36:\n      0x00\n        /* \"#utility.yul\":4197:4200   */\n      0xa0\n        /* \"#utility.yul\":4186:4195   */\n      dup3\n        /* \"#utility.yul\":4179:4201   */\n      mstore\n        /* \"#utility.yul\":4218:4266   */\n      tag_157\n        /* \"#utility.yul\":4261:4264   */\n      0xa0\n        /* \"#utility.yul\":4250:4259   */\n      dup4\n        /* \"#utility.yul\":4246:4265   */\n      add\n        /* \"#utility.yul\":4238:4244   */\n      dup9\n        /* \"#utility.yul\":4218:4266   */\n      tag_143\n      jump\t// in\n    tag_157:\n        /* \"#utility.yul\":4297:4299   */\n      0x20\n        /* \"#utility.yul\":4282:4300   */\n      dup4\n      add\n        /* \"#utility.yul\":4275:4309   */\n      swap7\n      swap1\n      swap7\n      mstore\n      pop\n      sub(shl(0xa0, 0x01), 0x01)\n        /* \"#utility.yul\":4345:4377   */\n      swap4\n      swap1\n      swap4\n      and\n        /* \"#utility.yul\":4340:4342   */\n      0x40\n        /* \"#utility.yul\":4325:4343   */\n      dup5\n      add\n        /* \"#utility.yul\":4318:4378   */\n      mstore\n        /* \"#utility.yul\":4421:4435   */\n      swap1\n      iszero\n        /* \"#utility.yul\":4414:4436   */\n      iszero\n        /* \"#utility.yul\":4409:4411   */\n      0x60\n        /* \"#utility.yul\":4394:4412   */\n      dup4\n      add\n        /* \"#utility.yul\":4387:4437   */\n      mstore\n        /* \"#utility.yul\":4468:4471   */\n      0x80\n        /* \"#utility.yul\":4453:4472   */\n      swap1\n      swap2\n      add\n        /* \"#utility.yul\":4446:4481   */\n      mstore\n        /* \"#utility.yul\":4275:4309   */\n      swap2\n        /* \"#utility.yul\":4210:4266   */\n      swap1\n      pop\n        /* \"#utility.yul\":4169:4487   */\n      jump\t// out\n        /* \"#utility.yul\":4492:4669   */\n    tag_41:\n        /* \"#utility.yul\":4638:4663   */\n      swap1\n      dup2\n      mstore\n        /* \"#utility.yul\":4626:4628   */\n      0x20\n        /* \"#utility.yul\":4611:4629   */\n      add\n      swap1\n        /* \"#utility.yul\":4593:4669   */\n      jump\t// out\n        /* \"#utility.yul\":4674:5163   */\n    tag_60:\n        /* \"#utility.yul\":4933:4958   */\n      swap5\n      dup6\n      mstore\n        /* \"#utility.yul\":4989:4991   */\n      0x20\n        /* \"#utility.yul\":4974:4992   */\n      dup6\n      add\n        /* \"#utility.yul\":4967:5001   */\n      swap4\n      swap1\n      swap4\n      mstore\n        /* \"#utility.yul\":5032:5034   */\n      0x40\n        /* \"#utility.yul\":5017:5035   */\n      dup5\n      add\n        /* \"#utility.yul\":5010:5044   */\n      swap2\n      swap1\n      swap2\n      mstore\n        /* \"#utility.yul\":5075:5077   */\n      0x60\n        /* \"#utility.yul\":5060:5078   */\n      dup4\n      add\n        /* \"#utility.yul\":5053:5087   */\n      mstore\n      sub(shl(0xa0, 0x01), 0x01)\n        /* \"#utility.yul\":5124:5156   */\n      and\n        /* \"#utility.yul\":5118:5121   */\n      0x80\n        /* \"#utility.yul\":5103:5122   */\n      dup3\n      add\n        /* \"#utility.yul\":5096:5157   */\n      mstore\n      0xa0\n        /* \"#utility.yul\":4905:4924   */\n      add\n      swap1\n        /* \"#utility.yul\":4887:5163   */\n      jump\t// out\n        /* \"#utility.yul\":5168:5385   */\n    tag_74:\n      0x00\n        /* \"#utility.yul\":5234:5235   */\n      dup3\n        /* \"#utility.yul\":5224:5226   */\n      tag_161\n      jumpi\n      shl(0xe0, 0x4e487b71)\n        /* \"#utility.yul\":5259:5290   */\n      dup2\n      mstore\n        /* \"#utility.yul\":5313:5317   */\n      0x12\n        /* \"#utility.yul\":5310:5311   */\n      0x04\n        /* \"#utility.yul\":5303:5318   */\n      mstore\n        /* \"#utility.yul\":5341:5345   */\n      0x24\n        /* \"#utility.yul\":5259:5290   */\n      dup2\n        /* \"#utility.yul\":5331:5346   */\n      revert\n        /* \"#utility.yul\":5224:5226   */\n    tag_161:\n      pop\n        /* \"#utility.yul\":5370:5379   */\n      div\n      swap1\n        /* \"#utility.yul\":5214:5385   */\n      jump\t// out\n        /* \"#utility.yul\":5390:5770   */\n    tag_81:\n        /* \"#utility.yul\":5475:5476   */\n      0x02\n        /* \"#utility.yul\":5465:5477   */\n      dup2\n      div\n        /* \"#utility.yul\":5522:5523   */\n      0x01\n        /* \"#utility.yul\":5512:5524   */\n      dup3\n      and\n      dup1\n        /* \"#utility.yul\":5533:5535   */\n      tag_163\n      jumpi\n        /* \"#utility.yul\":5587:5591   */\n      0x7f\n        /* \"#utility.yul\":5579:5585   */\n      dup3\n        /* \"#utility.yul\":5575:5592   */\n      and\n        /* \"#utility.yul\":5565:5592   */\n      swap2\n      pop\n        /* \"#utility.yul\":5533:5535   */\n    tag_163:\n        /* \"#utility.yul\":5640:5642   */\n      0x20\n        /* \"#utility.yul\":5632:5638   */\n      dup3\n        /* \"#utility.yul\":5629:5643   */\n      lt\n        /* \"#utility.yul\":5609:5627   */\n      dup2\n        /* \"#utility.yul\":5606:5644   */\n      eq\n        /* \"#utility.yul\":5603:5605   */\n      iszero\n      tag_164\n      jumpi\n        /* \"#utility.yul\":5686:5696   */\n      0x4e487b71\n        /* \"#utility.yul\":5681:5684   */\n      0xe0\n        /* \"#utility.yul\":5677:5697   */\n      shl\n        /* \"#utility.yul\":5674:5675   */\n      0x00\n        /* \"#utility.yul\":5667:5698   */\n      mstore\n        /* \"#utility.yul\":5721:5725   */\n      0x22\n        /* \"#utility.yul\":5718:5719   */\n      0x04\n        /* \"#utility.yul\":5711:5726   */\n      mstore\n        /* \"#utility.yul\":5749:5753   */\n      0x24\n        /* \"#utility.yul\":5746:5747   */\n      0x00\n        /* \"#utility.yul\":5739:5754   */\n      revert\n        /* \"#utility.yul\":5603:5605   */\n    tag_164:\n      pop\n        /* \"#utility.yul\":5445:5770   */\n      swap2\n      swap1\n      pop\n      jump\t// out\n        /* \"#utility.yul\":5775:6011   */\n    tag_105:\n      0x00\n      not(0x00)\n        /* \"#utility.yul\":5835:5852   */\n      dup3\n      eq\n        /* \"#utility.yul\":5832:5834   */\n      iszero\n      tag_166\n      jumpi\n      shl(0xe0, 0x4e487b71)\n        /* \"#utility.yul\":5875:5908   */\n      dup2\n      mstore\n        /* \"#utility.yul\":5931:5935   */\n      0x11\n        /* \"#utility.yul\":5928:5929   */\n      0x04\n        /* \"#utility.yul\":5921:5936   */\n      mstore\n        /* \"#utility.yul\":5961:5965   */\n      0x24\n        /* \"#utility.yul\":5875:5908   */\n      dup2\n        /* \"#utility.yul\":5949:5966   */\n      revert\n        /* \"#utility.yul\":5832:5834   */\n    tag_166:\n      pop\n        /* \"#utility.yul\":6003:6004   */\n      0x01\n        /* \"#utility.yul\":5992:6005   */\n      add\n      swap1\n        /* \"#utility.yul\":5822:6011   */\n      jump\t// out\n        /* \"#utility.yul\":6016:6143   */\n    tag_136:\n        /* \"#utility.yul\":6077:6087   */\n      0x4e487b71\n        /* \"#utility.yul\":6072:6075   */\n      0xe0\n        /* \"#utility.yul\":6068:6088   */\n      shl\n        /* \"#utility.yul\":6065:6066   */\n      0x00\n        /* \"#utility.yul\":6058:6089   */\n      mstore\n        /* \"#utility.yul\":6108:6112   */\n      0x41\n        /* \"#utility.yul\":6105:6106   */\n      0x04\n        /* \"#utility.yul\":6098:6113   */\n      mstore\n        /* \"#utility.yul\":6132:6136   */\n      0x24\n        /* \"#utility.yul\":6129:6130   */\n      0x00\n        /* \"#utility.yul\":6122:6137   */\n      revert\n\n    auxdata: 0xa26469706673582212207b54d2660f53c69129e59162a99c15d979d70c835e1f1177944298e497338d8964736f6c63430008000033\n}\n","bytecode":{"linkReferences":{},"object":"608060405234801561001057600080fd5b50604051610bbc380380610bbc83398101604081905261002f91610057565b600180546001600160a01b0319166001600160a01b0392909216919091179055600255610092565b60008060408385031215610069578182fd5b825160208401519092506001600160a01b0381168114610087578182fd5b809150509250929050565b610b1b806100a16000396000f3fe60806040526004361061009c5760003560e01c80638813ce12116100645780638813ce121461016e5780638a9cfd5514610190578063a7f33715146101b0578063b2548ecc146101c5578063d7bb99ba146101eb578063d7d1bbdb146101f35761009c565b806303441006146100a15780630a144391146100c3578063481c6a75146100f957806381d12c581461011b57806382fde0931461014c575b600080fd5b3480156100ad57600080fd5b506100c16100bc3660046108b9565b610213565b005b3480156100cf57600080fd5b506100e36100de3660046107de565b6102ef565b6040516100f091906109cd565b60405180910390f35b34801561010557600080fd5b5061010e610304565b6040516100f0919061091c565b34801561012757600080fd5b5061013b6101363660046108b9565b610313565b6040516100f09594939291906109d8565b34801561015857600080fd5b506101616103f2565b6040516100f09190610a18565b34801561017a57600080fd5b506101836103f8565b6040516100f09190610930565b34801561019c57600080fd5b506100c16101ab3660046107ff565b610528565b3480156101bc57600080fd5b5061016161061e565b3480156101d157600080fd5b506101da610624565b6040516100f0959493929190610a21565b6100c1610640565b3480156101ff57600080fd5b506100c161020e3660046108b9565b61067e565b6001546001600160a01b0316331461022a57600080fd5b60006005828154811061024d57634e487b7160e01b600052603260045260246000fd5b906000526020600020906004020190508060020160149054906101000a900460ff161561027957600080fd5b60026004546102889190610a4d565b81600301541161029757600080fd5b600281015460018201546040516001600160a01b039092169181156108fc0291906000818181858888f193505050501580156102d7573d6000803e3d6000fd5b50600201805460ff60a01b1916600160a01b17905550565b60036020526000908152604090205460ff1681565b6001546001600160a01b031681565b6005818154811061032357600080fd5b906000526020600020906004020160009150905080600001805461034690610a6d565b80601f016020809104026020016040519081016040528092919081815260200182805461037290610a6d565b80156103bf5780601f10610394576101008083540402835291602001916103bf565b820191906000526020600020905b8154815290600101906020018083116103a257829003601f168201915b5050505060018301546002840154600390940154929390926001600160a01b0382169250600160a01b90910460ff169085565b60045481565b60606005805480602002602001604051908101604052809291908181526020016000905b8282101561051f57838290600052602060002090600402016040518060a001604052908160008201805461044f90610a6d565b80601f016020809104026020016040519081016040528092919081815260200182805461047b90610a6d565b80156104c85780601f1061049d576101008083540402835291602001916104c8565b820191906000526020600020905b8154815290600101906020018083116104ab57829003601f168201915b505050918352505060018281015460208084019190915260028401546001600160a01b0381166040850152600160a01b900460ff16151560608401526003909301546080909201919091529183529201910161041c565b50505050905090565b6001546001600160a01b0316331461053f57600080fd5b6040805160a08101825284815260208082018590526001600160a01b0384169282019290925260006060820181905260808201819052600580546001810182559152815180519293849360049093027f036b6384b5eca791c62761152d0c79bb0604c104a5fb6f4eb0703f3154bb3db001926105be9284920190610729565b5060208201516001820155604082015160028201805460608501511515600160a01b0260ff60a01b196001600160a01b039094166001600160a01b0319909216919091179290921691909117905560809091015160039091015550505050565b60025481565b600254600554600454600154929347936001600160a01b031690565b60025434101561064f57600080fd5b336000908152600360205260408120805460ff19166001179055600480549161067783610aa8565b9190505550565b3360009081526003602052604090205460ff1661069a57600080fd5b60008181526020818152604080832033845290915290205460ff16156106bf57600080fd5b6000818152602081815260408083203384529091529020805460ff19166001179055600580548290811061070357634e487b7160e01b600052603260045260246000fd5b60009182526020822060036004909202010180549161072183610aa8565b919050555050565b82805461073590610a6d565b90600052602060002090601f016020900481019282610757576000855561079d565b82601f1061077057805160ff191683800117855561079d565b8280016001018555821561079d579182015b8281111561079d578251825591602001919060010190610782565b506107a99291506107ad565b5090565b5b808211156107a957600081556001016107ae565b80356001600160a01b03811681146107d957600080fd5b919050565b6000602082840312156107ef578081fd5b6107f8826107c2565b9392505050565b600080600060608486031215610813578182fd5b833567ffffffffffffffff8082111561082a578384fd5b818601915086601f83011261083d578384fd5b813560208282111561085157610851610acf565b604051601f8301601f191681018201848111828210171561087457610874610acf565b60405282815284830182018a101561088a578687fd5b82828601838301379182018101959095529450505090830135906108b0604085016107c2565b90509250925092565b6000602082840312156108ca578081fd5b5035919050565b60008151808452815b818110156108f6576020818501810151868301820152016108da565b818111156109075782602083870101525b50601f01601f19169290920160200192915050565b6001600160a01b0391909116815260200190565b60208082528251828201819052600091906040908185019080840286018301878501865b838110156109bf57603f19898403018552815160a0815181865261097a828701826108d1565b838b0151878c0152898401516001600160a01b03168a880152606080850151151590880152608093840151939096019290925250509386019390860190600101610954565b509098975050505050505050565b901515815260200190565b600060a082526109eb60a08301886108d1565b6020830196909652506001600160a01b039390931660408401529015156060830152608090910152919050565b90815260200190565b9485526020850193909352604084019190915260608301526001600160a01b0316608082015260a00190565b600082610a6857634e487b7160e01b81526012600452602481fd5b500490565b600281046001821680610a8157607f821691505b60208210811415610aa257634e487b7160e01b600052602260045260246000fd5b50919050565b6000600019821415610ac857634e487b7160e01b81526011600452602481fd5b5060010190565b634e487b7160e01b600052604160045260246000fdfea26469706673582212207b54d2660f53c69129e59162a99c15d979d70c835e1f1177944298e497338d8964736f6c63430008000033","opcodes":"PUSH1 0x80 PUSH1 0x40 MSTORE CALLVALUE DUP1 ISZERO PUSH2 0x10 JUMPI PUSH1 0x0 DUP1 REVERT JUMPDEST POP PUSH1 0x40 MLOAD PUSH2 0xBBC CODESIZE SUB DUP1 PUSH2 0xBBC DUP4 CODECOPY DUP2 ADD PUSH1 0x40 DUP2 SWAP1 MSTORE PUSH2 0x2F SWAP2 PUSH2 0x57 JUMP JUMPDEST PUSH1 0x1 DUP1 SLOAD PUSH1 0x1 PUSH1 0x1 PUSH1 0xA0 SHL SUB NOT AND PUSH1 0x1 PUSH1 0x1 PUSH1 0xA0 SHL SUB SWAP3 SWAP1 SWAP3 AND SWAP2 SWAP1 SWAP2 OR SWAP1 SSTORE PUSH1 0x2 SSTORE PUSH2 0x92 JUMP JUMPDEST PUSH1 0x0 DUP1 PUSH1 0x40 DUP4 DUP6 SUB SLT ISZERO PUSH2 0x69 JUMPI DUP2 DUP3 REVERT JUMPDEST DUP3 MLOAD PUSH1 0x20 DUP5 ADD MLOAD SWAP1 SWAP3 POP PUSH1 0x1 PUSH1 0x1 PUSH1 0xA0 SHL SUB DUP2 AND DUP2 EQ PUSH2 0x87 JUMPI DUP2 DUP3 REVERT JUMPDEST DUP1 SWAP2 POP POP SWAP3 POP SWAP3 SWAP1 POP JUMP JUMPDEST PUSH2 0xB1B DUP1 PUSH2 0xA1 PUSH1 0x0 CODECOPY PUSH1 0x0 RETURN INVALID PUSH1 0x80 PUSH1 0x40 MSTORE PUSH1 0x4 CALLDATASIZE LT PUSH2 0x9C JUMPI PUSH1 0x0 CALLDATALOAD PUSH1 0xE0 SHR DUP1 PUSH4 0x8813CE12 GT PUSH2 0x64 JUMPI DUP1 PUSH4 0x8813CE12 EQ PUSH2 0x16E JUMPI DUP1 PUSH4 0x8A9CFD55 EQ PUSH2 0x190 JUMPI DUP1 PUSH4 0xA7F33715 EQ PUSH2 0x1B0 JUMPI DUP1 PUSH4 0xB2548ECC EQ PUSH2 0x1C5 JUMPI DUP1 PUSH4 0xD7BB99BA EQ PUSH2 0x1EB JUMPI DUP1 PUSH4 0xD7D1BBDB EQ PUSH2 0x1F3 JUMPI PUSH2 0x9C JUMP JUMPDEST DUP1 PUSH4 0x3441006 EQ PUSH2 0xA1 JUMPI DUP1 PUSH4 0xA144391 EQ PUSH2 0xC3 JUMPI DUP1 PUSH4 0x481C6A75 EQ PUSH2 0xF9 JUMPI DUP1 PUSH4 0x81D12C58 EQ PUSH2 0x11B JUMPI DUP1 PUSH4 0x82FDE093 EQ PUSH2 0x14C JUMPI JUMPDEST PUSH1 0x0 DUP1 REVERT JUMPDEST CALLVALUE DUP1 ISZERO PUSH2 0xAD JUMPI PUSH1 0x0 DUP1 REVERT JUMPDEST POP PUSH2 0xC1 PUSH2 0xBC CALLDATASIZE PUSH1 0x4 PUSH2 0x8B9 JUMP JUMPDEST PUSH2 0x213 JUMP JUMPDEST STOP JUMPDEST CALLVALUE DUP1 ISZERO PUSH2 0xCF JUMPI PUSH1 0x0 DUP1 REVERT JUMPDEST POP PUSH2 0xE3 PUSH2 0xDE CALLDATASIZE PUSH1 0x4 PUSH2 0x7DE JUMP JUMPDEST PUSH2 0x2EF JUMP JUMPDEST PUSH1 0x40 MLOAD PUSH2 0xF0 SWAP2 SWAP1 PUSH2 0x9CD JUMP JUMPDEST PUSH1 0x40 MLOAD DUP1 SWAP2 SUB SWAP1 RETURN JUMPDEST CALLVALUE DUP1 ISZERO PUSH2 0x105 JUMPI PUSH1 0x0 DUP1 REVERT JUMPDEST POP PUSH2 0x10E PUSH2 0x304 JUMP JUMPDEST PUSH1 0x40 MLOAD PUSH2 0xF0 SWAP2 SWAP1 PUSH2 0x91C JUMP JUMPDEST CALLVALUE DUP1 ISZERO PUSH2 0x127 JUMPI PUSH1 0x0 DUP1 REVERT JUMPDEST POP PUSH2 0x13B PUSH2 0x136 CALLDATASIZE PUSH1 0x4 PUSH2 0x8B9 JUMP JUMPDEST PUSH2 0x313 JUMP JUMPDEST PUSH1 0x40 MLOAD PUSH2 0xF0 SWAP6 SWAP5 SWAP4 SWAP3 SWAP2 SWAP1 PUSH2 0x9D8 JUMP JUMPDEST CALLVALUE DUP1 ISZERO PUSH2 0x158 JUMPI PUSH1 0x0 DUP1 REVERT JUMPDEST POP PUSH2 0x161 PUSH2 0x3F2 JUMP JUMPDEST PUSH1 0x40 MLOAD PUSH2 0xF0 SWAP2 SWAP1 PUSH2 0xA18 JUMP JUMPDEST CALLVALUE DUP1 ISZERO PUSH2 0x17A JUMPI PUSH1 0x0 DUP1 REVERT JUMPDEST POP PUSH2 0x183 PUSH2 0x3F8 JUMP JUMPDEST PUSH1 0x40 MLOAD PUSH2 0xF0 SWAP2 SWAP1 PUSH2 0x930 JUMP JUMPDEST CALLVALUE DUP1 ISZERO PUSH2 0x19C JUMPI PUSH1 0x0 DUP1 REVERT JUMPDEST POP PUSH2 0xC1 PUSH2 0x1AB CALLDATASIZE PUSH1 0x4 PUSH2 0x7FF JUMP JUMPDEST PUSH2 0x528 JUMP JUMPDEST CALLVALUE DUP1 ISZERO PUSH2 0x1BC JUMPI PUSH1 0x0 DUP1 REVERT JUMPDEST POP PUSH2 0x161 PUSH2 0x61E JUMP JUMPDEST CALLVALUE DUP1 ISZERO PUSH2 0x1D1 JUMPI PUSH1 0x0 DUP1 REVERT JUMPDEST POP PUSH2 0x1DA PUSH2 0x624 JUMP JUMPDEST PUSH1 0x40 MLOAD PUSH2 0xF0 SWAP6 SWAP5 SWAP4 SWAP3 SWAP2 SWAP1 PUSH2 0xA21 JUMP JUMPDEST PUSH2 0xC1 PUSH2 0x640 JUMP JUMPDEST CALLVALUE DUP1 ISZERO PUSH2 0x1FF JUMPI PUSH1 0x0 DUP1 REVERT JUMPDEST POP PUSH2 0xC1 PUSH2 0x20E CALLDATASIZE PUSH1 0x4 PUSH2 0x8B9 JUMP JUMPDEST PUSH2 0x67E JUMP JUMPDEST PUSH1 0x1 SLOAD PUSH1 0x1 PUSH1 0x1 PUSH1 0xA0 SHL SUB AND CALLER EQ PUSH2 0x22A JUMPI PUSH1 0x0 DUP1 REVERT JUMPDEST PUSH1 0x0 PUSH1 0x5 DUP3 DUP2 SLOAD DUP2 LT PUSH2 0x24D JUMPI PUSH4 0x4E487B71 PUSH1 0xE0 SHL PUSH1 0x0 MSTORE PUSH1 0x32 PUSH1 0x4 MSTORE PUSH1 0x24 PUSH1 0x0 REVERT JUMPDEST SWAP1 PUSH1 0x0 MSTORE PUSH1 0x20 PUSH1 0x0 KECCAK256 SWAP1 PUSH1 0x4 MUL ADD SWAP1 POP DUP1 PUSH1 0x2 ADD PUSH1 0x14 SWAP1 SLOAD SWAP1 PUSH2 0x100 EXP SWAP1 DIV PUSH1 0xFF AND ISZERO PUSH2 0x279 JUMPI PUSH1 0x0 DUP1 REVERT JUMPDEST PUSH1 0x2 PUSH1 0x4 SLOAD PUSH2 0x288 SWAP2 SWAP1 PUSH2 0xA4D JUMP JUMPDEST DUP2 PUSH1 0x3 ADD SLOAD GT PUSH2 0x297 JUMPI PUSH1 0x0 DUP1 REVERT JUMPDEST PUSH1 0x2 DUP2 ADD SLOAD PUSH1 0x1 DUP3 ADD SLOAD PUSH1 0x40 MLOAD PUSH1 0x1 PUSH1 0x1 PUSH1 0xA0 SHL SUB SWAP1 SWAP3 AND SWAP2 DUP2 ISZERO PUSH2 0x8FC MUL SWAP2 SWAP1 PUSH1 0x0 DUP2 DUP2 DUP2 DUP6 DUP9 DUP9 CALL SWAP4 POP POP POP POP ISZERO DUP1 ISZERO PUSH2 0x2D7 JUMPI RETURNDATASIZE PUSH1 0x0 DUP1 RETURNDATACOPY RETURNDATASIZE PUSH1 0x0 REVERT JUMPDEST POP PUSH1 0x2 ADD DUP1 SLOAD PUSH1 0xFF PUSH1 0xA0 SHL NOT AND PUSH1 0x1 PUSH1 0xA0 SHL OR SWAP1 SSTORE POP JUMP JUMPDEST PUSH1 0x3 PUSH1 0x20 MSTORE PUSH1 0x0 SWAP1 DUP2 MSTORE PUSH1 0x40 SWAP1 KECCAK256 SLOAD PUSH1 0xFF AND DUP2 JUMP JUMPDEST PUSH1 0x1 SLOAD PUSH1 0x1 PUSH1 0x1 PUSH1 0xA0 SHL SUB AND DUP2 JUMP JUMPDEST PUSH1 0x5 DUP2 DUP2 SLOAD DUP2 LT PUSH2 0x323 JUMPI PUSH1 0x0 DUP1 REVERT JUMPDEST SWAP1 PUSH1 0x0 MSTORE PUSH1 0x20 PUSH1 0x0 KECCAK256 SWAP1 PUSH1 0x4 MUL ADD PUSH1 0x0 SWAP2 POP SWAP1 POP DUP1 PUSH1 0x0 ADD DUP1 SLOAD PUSH2 0x346 SWAP1 PUSH2 0xA6D JUMP JUMPDEST DUP1 PUSH1 0x1F ADD PUSH1 0x20 DUP1 SWAP2 DIV MUL PUSH1 0x20 ADD PUSH1 0x40 MLOAD SWAP1 DUP2 ADD PUSH1 0x40 MSTORE DUP1 SWAP3 SWAP2 SWAP1 DUP2 DUP2 MSTORE PUSH1 0x20 ADD DUP3 DUP1 SLOAD PUSH2 0x372 SWAP1 PUSH2 0xA6D JUMP JUMPDEST DUP1 ISZERO PUSH2 0x3BF JUMPI DUP1 PUSH1 0x1F LT PUSH2 0x394 JUMPI PUSH2 0x100 DUP1 DUP4 SLOAD DIV MUL DUP4 MSTORE SWAP2 PUSH1 0x20 ADD SWAP2 PUSH2 0x3BF JUMP JUMPDEST DUP3 ADD SWAP2 SWAP1 PUSH1 0x0 MSTORE PUSH1 0x20 PUSH1 0x0 KECCAK256 SWAP1 JUMPDEST DUP2 SLOAD DUP2 MSTORE SWAP1 PUSH1 0x1 ADD SWAP1 PUSH1 0x20 ADD DUP1 DUP4 GT PUSH2 0x3A2 JUMPI DUP3 SWAP1 SUB PUSH1 0x1F AND DUP3 ADD SWAP2 JUMPDEST POP POP POP POP PUSH1 0x1 DUP4 ADD SLOAD PUSH1 0x2 DUP5 ADD SLOAD PUSH1 0x3 SWAP1 SWAP5 ADD SLOAD SWAP3 SWAP4 SWAP1 SWAP3 PUSH1 0x1 PUSH1 0x1 PUSH1 0xA0 SHL SUB DUP3 AND SWAP3 POP PUSH1 0x1 PUSH1 0xA0 SHL SWAP1 SWAP2 DIV PUSH1 0xFF AND SWAP1 DUP6 JUMP JUMPDEST PUSH1 0x4 SLOAD DUP2 JUMP JUMPDEST PUSH1 0x60 PUSH1 0x5 DUP1 SLOAD DUP1 PUSH1 0x20 MUL PUSH1 0x20 ADD PUSH1 0x40 MLOAD SWAP1 DUP2 ADD PUSH1 0x40 MSTORE DUP1 SWAP3 SWAP2 SWAP1 DUP2 DUP2 MSTORE PUSH1 0x20 ADD PUSH1 0x0 SWAP1 JUMPDEST DUP3 DUP3 LT ISZERO PUSH2 0x51F JUMPI DUP4 DUP3 SWAP1 PUSH1 0x0 MSTORE PUSH1 0x20 PUSH1 0x0 KECCAK256 SWAP1 PUSH1 0x4 MUL ADD PUSH1 0x40 MLOAD DUP1 PUSH1 0xA0 ADD PUSH1 0x40 MSTORE SWAP1 DUP2 PUSH1 0x0 DUP3 ADD DUP1 SLOAD PUSH2 0x44F SWAP1 PUSH2 0xA6D JUMP JUMPDEST DUP1 PUSH1 0x1F ADD PUSH1 0x20 DUP1 SWAP2 DIV MUL PUSH1 0x20 ADD PUSH1 0x40 MLOAD SWAP1 DUP2 ADD PUSH1 0x40 MSTORE DUP1 SWAP3 SWAP2 SWAP1 DUP2 DUP2 MSTORE PUSH1 0x20 ADD DUP3 DUP1 SLOAD PUSH2 0x47B SWAP1 PUSH2 0xA6D JUMP JUMPDEST DUP1 ISZERO PUSH2 0x4C8 JUMPI DUP1 PUSH1 0x1F LT PUSH2 0x49D JUMPI PUSH2 0x100 DUP1 DUP4 SLOAD DIV MUL DUP4 MSTORE SWAP2 PUSH1 0x20 ADD SWAP2 PUSH2 0x4C8 JUMP JUMPDEST DUP3 ADD SWAP2 SWAP1 PUSH1 0x0 MSTORE PUSH1 0x20 PUSH1 0x0 KECCAK256 SWAP1 JUMPDEST DUP2 SLOAD DUP2 MSTORE SWAP1 PUSH1 0x1 ADD SWAP1 PUSH1 0x20 ADD DUP1 DUP4 GT PUSH2 0x4AB JUMPI DUP3 SWAP1 SUB PUSH1 0x1F AND DUP3 ADD SWAP2 JUMPDEST POP POP POP SWAP2 DUP4 MSTORE POP POP PUSH1 0x1 DUP3 DUP2 ADD SLOAD PUSH1 0x20 DUP1 DUP5 ADD SWAP2 SWAP1 SWAP2 MSTORE PUSH1 0x2 DUP5 ADD SLOAD PUSH1 0x1 PUSH1 0x1 PUSH1 0xA0 SHL SUB DUP2 AND PUSH1 0x40 DUP6 ADD MSTORE PUSH1 0x1 PUSH1 0xA0 SHL SWAP1 DIV PUSH1 0xFF AND ISZERO ISZERO PUSH1 0x60 DUP5 ADD MSTORE PUSH1 0x3 SWAP1 SWAP4 ADD SLOAD PUSH1 0x80 SWAP1 SWAP3 ADD SWAP2 SWAP1 SWAP2 MSTORE SWAP2 DUP4 MSTORE SWAP3 ADD SWAP2 ADD PUSH2 0x41C JUMP JUMPDEST POP POP POP POP SWAP1 POP SWAP1 JUMP JUMPDEST PUSH1 0x1 SLOAD PUSH1 0x1 PUSH1 0x1 PUSH1 0xA0 SHL SUB AND CALLER EQ PUSH2 0x53F JUMPI PUSH1 0x0 DUP1 REVERT JUMPDEST PUSH1 0x40 DUP1 MLOAD PUSH1 0xA0 DUP2 ADD DUP3 MSTORE DUP5 DUP2 MSTORE PUSH1 0x20 DUP1 DUP3 ADD DUP6 SWAP1 MSTORE PUSH1 0x1 PUSH1 0x1 PUSH1 0xA0 SHL SUB DUP5 AND SWAP3 DUP3 ADD SWAP3 SWAP1 SWAP3 MSTORE PUSH1 0x0 PUSH1 0x60 DUP3 ADD DUP2 SWAP1 MSTORE PUSH1 0x80 DUP3 ADD DUP2 SWAP1 MSTORE PUSH1 0x5 DUP1 SLOAD PUSH1 0x1 DUP2 ADD DUP3 SSTORE SWAP2 MSTORE DUP2 MLOAD DUP1 MLOAD SWAP3 SWAP4 DUP5 SWAP4 PUSH1 0x4 SWAP1 SWAP4 MUL PUSH32 0x36B6384B5ECA791C62761152D0C79BB0604C104A5FB6F4EB0703F3154BB3DB0 ADD SWAP3 PUSH2 0x5BE SWAP3 DUP5 SWAP3 ADD SWAP1 PUSH2 0x729 JUMP JUMPDEST POP PUSH1 0x20 DUP3 ADD MLOAD PUSH1 0x1 DUP3 ADD SSTORE PUSH1 0x40 DUP3 ADD MLOAD PUSH1 0x2 DUP3 ADD DUP1 SLOAD PUSH1 0x60 DUP6 ADD MLOAD ISZERO ISZERO PUSH1 0x1 PUSH1 0xA0 SHL MUL PUSH1 0xFF PUSH1 0xA0 SHL NOT PUSH1 0x1 PUSH1 0x1 PUSH1 0xA0 SHL SUB SWAP1 SWAP5 AND PUSH1 0x1 PUSH1 0x1 PUSH1 0xA0 SHL SUB NOT SWAP1 SWAP3 AND SWAP2 SWAP1 SWAP2 OR SWAP3 SWAP1 SWAP3 AND SWAP2 SWAP1 SWAP2 OR SWAP1 SSTORE PUSH1 0x80 SWAP1 SWAP2 ADD MLOAD PUSH1 0x3 SWAP1 SWAP2 ADD SSTORE POP POP POP POP JUMP JUMPDEST PUSH1 0x2 SLOAD DUP2 JUMP JUMPDEST PUSH1 0x2 SLOAD PUSH1 0x5 SLOAD PUSH1 0x4 SLOAD PUSH1 0x1 SLOAD SWAP3 SWAP4 SELFBALANCE SWAP4 PUSH1 0x1 PUSH1 0x1 PUSH1 0xA0 SHL SUB AND SWAP1 JUMP JUMPDEST PUSH1 0x2 SLOAD CALLVALUE LT ISZERO PUSH2 0x64F JUMPI PUSH1 0x0 DUP1 REVERT JUMPDEST CALLER PUSH1 0x0 SWAP1 DUP2 MSTORE PUSH1 0x3 PUSH1 0x20 MSTORE PUSH1 0x40 DUP2 KECCAK256 DUP1 SLOAD PUSH1 0xFF NOT AND PUSH1 0x1 OR SWAP1 SSTORE PUSH1 0x4 DUP1 SLOAD SWAP2 PUSH2 0x677 DUP4 PUSH2 0xAA8 JUMP JUMPDEST SWAP2 SWAP1 POP SSTORE POP JUMP JUMPDEST CALLER PUSH1 0x0 SWAP1 DUP2 MSTORE PUSH1 0x3 PUSH1 0x20 MSTORE PUSH1 0x40 SWAP1 KECCAK256 SLOAD PUSH1 0xFF AND PUSH2 0x69A JUMPI PUSH1 0x0 DUP1 REVERT JUMPDEST PUSH1 0x0 DUP2 DUP2 MSTORE PUSH1 0x20 DUP2 DUP2 MSTORE PUSH1 0x40 DUP1 DUP4 KECCAK256 CALLER DUP5 MSTORE SWAP1 SWAP2 MSTORE SWAP1 KECCAK256 SLOAD PUSH1 0xFF AND ISZERO PUSH2 0x6BF JUMPI PUSH1 0x0 DUP1 REVERT JUMPDEST PUSH1 0x0 DUP2 DUP2 MSTORE PUSH1 0x20 DUP2 DUP2 MSTORE PUSH1 0x40 DUP1 DUP4 KECCAK256 CALLER DUP5 MSTORE SWAP1 SWAP2 MSTORE SWAP1 KECCAK256 DUP1 SLOAD PUSH1 0xFF NOT AND PUSH1 0x1 OR SWAP1 SSTORE PUSH1 0x5 DUP1 SLOAD DUP3 SWAP1 DUP2 LT PUSH2 0x703 JUMPI PUSH4 0x4E487B71 PUSH1 0xE0 SHL PUSH1 0x0 MSTORE PUSH1 0x32 PUSH1 0x4 MSTORE PUSH1 0x24 PUSH1 0x0 REVERT JUMPDEST PUSH1 0x0 SWAP2 DUP3 MSTORE PUSH1 0x20 DUP3 KECCAK256 PUSH1 0x3 PUSH1 0x4 SWAP1 SWAP3 MUL ADD ADD DUP1 SLOAD SWAP2 PUSH2 0x721 DUP4 PUSH2 0xAA8 JUMP JUMPDEST SWAP2 SWAP1 POP SSTORE POP POP JUMP JUMPDEST DUP3 DUP1 SLOAD PUSH2 0x735 SWAP1 PUSH2 0xA6D JUMP JUMPDEST SWAP1 PUSH1 0x0 MSTORE PUSH1 0x20 PUSH1 0x0 KECCAK256 SWAP1 PUSH1 0x1F ADD PUSH1 0x20 SWAP1 DIV DUP2 ADD SWAP3 DUP3 PUSH2 0x757 JUMPI PUSH1 0x0 DUP6 SSTORE PUSH2 0x79D JUMP JUMPDEST DUP3 PUSH1 0x1F LT PUSH2 0x770 JUMPI DUP1 MLOAD PUSH1 0xFF NOT AND DUP4 DUP1 ADD OR DUP6 SSTORE PUSH2 0x79D JUMP JUMPDEST DUP3 DUP1 ADD PUSH1 0x1 ADD DUP6 SSTORE DUP3 ISZERO PUSH2 0x79D JUMPI SWAP2 DUP3 ADD JUMPDEST DUP3 DUP2 GT ISZERO PUSH2 0x79D JUMPI DUP3 MLOAD DUP3 SSTORE SWAP2 PUSH1 0x20 ADD SWAP2 SWAP1 PUSH1 0x1 ADD SWAP1 PUSH2 0x782 JUMP JUMPDEST POP PUSH2 0x7A9 SWAP3 SWAP2 POP PUSH2 0x7AD JUMP JUMPDEST POP SWAP1 JUMP JUMPDEST JUMPDEST DUP1 DUP3 GT ISZERO PUSH2 0x7A9 JUMPI PUSH1 0x0 DUP2 SSTORE PUSH1 0x1 ADD PUSH2 0x7AE JUMP JUMPDEST DUP1 CALLDATALOAD PUSH1 0x1 PUSH1 0x1 PUSH1 0xA0 SHL SUB DUP2 AND DUP2 EQ PUSH2 0x7D9 JUMPI PUSH1 0x0 DUP1 REVERT JUMPDEST SWAP2 SWAP1 POP JUMP JUMPDEST PUSH1 0x0 PUSH1 0x20 DUP3 DUP5 SUB SLT ISZERO PUSH2 0x7EF JUMPI DUP1 DUP2 REVERT JUMPDEST PUSH2 0x7F8 DUP3 PUSH2 0x7C2 JUMP JUMPDEST SWAP4 SWAP3 POP POP POP JUMP JUMPDEST PUSH1 0x0 DUP1 PUSH1 0x0 PUSH1 0x60 DUP5 DUP7 SUB SLT ISZERO PUSH2 0x813 JUMPI DUP2 DUP3 REVERT JUMPDEST DUP4 CALLDATALOAD PUSH8 0xFFFFFFFFFFFFFFFF DUP1 DUP3 GT ISZERO PUSH2 0x82A JUMPI DUP4 DUP5 REVERT JUMPDEST DUP2 DUP7 ADD SWAP2 POP DUP7 PUSH1 0x1F DUP4 ADD SLT PUSH2 0x83D JUMPI DUP4 DUP5 REVERT JUMPDEST DUP2 CALLDATALOAD PUSH1 0x20 DUP3 DUP3 GT ISZERO PUSH2 0x851 JUMPI PUSH2 0x851 PUSH2 0xACF JUMP JUMPDEST PUSH1 0x40 MLOAD PUSH1 0x1F DUP4 ADD PUSH1 0x1F NOT AND DUP2 ADD DUP3 ADD DUP5 DUP2 GT DUP3 DUP3 LT OR ISZERO PUSH2 0x874 JUMPI PUSH2 0x874 PUSH2 0xACF JUMP JUMPDEST PUSH1 0x40 MSTORE DUP3 DUP2 MSTORE DUP5 DUP4 ADD DUP3 ADD DUP11 LT ISZERO PUSH2 0x88A JUMPI DUP7 DUP8 REVERT JUMPDEST DUP3 DUP3 DUP7 ADD DUP4 DUP4 ADD CALLDATACOPY SWAP2 DUP3 ADD DUP2 ADD SWAP6 SWAP1 SWAP6 MSTORE SWAP5 POP POP POP SWAP1 DUP4 ADD CALLDATALOAD SWAP1 PUSH2 0x8B0 PUSH1 0x40 DUP6 ADD PUSH2 0x7C2 JUMP JUMPDEST SWAP1 POP SWAP3 POP SWAP3 POP SWAP3 JUMP JUMPDEST PUSH1 0x0 PUSH1 0x20 DUP3 DUP5 SUB SLT ISZERO PUSH2 0x8CA JUMPI DUP1 DUP2 REVERT JUMPDEST POP CALLDATALOAD SWAP2 SWAP1 POP JUMP JUMPDEST PUSH1 0x0 DUP2 MLOAD DUP1 DUP5 MSTORE DUP2 JUMPDEST DUP2 DUP2 LT ISZERO PUSH2 0x8F6 JUMPI PUSH1 0x20 DUP2 DUP6 ADD DUP2 ADD MLOAD DUP7 DUP4 ADD DUP3 ADD MSTORE ADD PUSH2 0x8DA JUMP JUMPDEST DUP2 DUP2 GT ISZERO PUSH2 0x907 JUMPI DUP3 PUSH1 0x20 DUP4 DUP8 ADD ADD MSTORE JUMPDEST POP PUSH1 0x1F ADD PUSH1 0x1F NOT AND SWAP3 SWAP1 SWAP3 ADD PUSH1 0x20 ADD SWAP3 SWAP2 POP POP JUMP JUMPDEST PUSH1 0x1 PUSH1 0x1 PUSH1 0xA0 SHL SUB SWAP2 SWAP1 SWAP2 AND DUP2 MSTORE PUSH1 0x20 ADD SWAP1 JUMP JUMPDEST PUSH1 0x20 DUP1 DUP3 MSTORE DUP3 MLOAD DUP3 DUP3 ADD DUP2 SWAP1 MSTORE PUSH1 0x0 SWAP2 SWAP1 PUSH1 0x40 SWAP1 DUP2 DUP6 ADD SWAP1 DUP1 DUP5 MUL DUP7 ADD DUP4 ADD DUP8 DUP6 ADD DUP7 JUMPDEST DUP4 DUP2 LT ISZERO PUSH2 0x9BF JUMPI PUSH1 0x3F NOT DUP10 DUP5 SUB ADD DUP6 MSTORE DUP2 MLOAD PUSH1 0xA0 DUP2 MLOAD DUP2 DUP7 MSTORE PUSH2 0x97A DUP3 DUP8 ADD DUP3 PUSH2 0x8D1 JUMP JUMPDEST DUP4 DUP12 ADD MLOAD DUP8 DUP13 ADD MSTORE DUP10 DUP5 ADD MLOAD PUSH1 0x1 PUSH1 0x1 PUSH1 0xA0 SHL SUB AND DUP11 DUP9 ADD MSTORE PUSH1 0x60 DUP1 DUP6 ADD MLOAD ISZERO ISZERO SWAP1 DUP9 ADD MSTORE PUSH1 0x80 SWAP4 DUP5 ADD MLOAD SWAP4 SWAP1 SWAP7 ADD SWAP3 SWAP1 SWAP3 MSTORE POP POP SWAP4 DUP7 ADD SWAP4 SWAP1 DUP7 ADD SWAP1 PUSH1 0x1 ADD PUSH2 0x954 JUMP JUMPDEST POP SWAP1 SWAP9 SWAP8 POP POP POP POP POP POP POP POP JUMP JUMPDEST SWAP1 ISZERO ISZERO DUP2 MSTORE PUSH1 0x20 ADD SWAP1 JUMP JUMPDEST PUSH1 0x0 PUSH1 0xA0 DUP3 MSTORE PUSH2 0x9EB PUSH1 0xA0 DUP4 ADD DUP9 PUSH2 0x8D1 JUMP JUMPDEST PUSH1 0x20 DUP4 ADD SWAP7 SWAP1 SWAP7 MSTORE POP PUSH1 0x1 PUSH1 0x1 PUSH1 0xA0 SHL SUB SWAP4 SWAP1 SWAP4 AND PUSH1 0x40 DUP5 ADD MSTORE SWAP1 ISZERO ISZERO PUSH1 0x60 DUP4 ADD MSTORE PUSH1 0x80 SWAP1 SWAP2 ADD MSTORE SWAP2 SWAP1 POP JUMP JUMPDEST SWAP1 DUP2 MSTORE PUSH1 0x20 ADD SWAP1 JUMP JUMPDEST SWAP5 DUP6 MSTORE PUSH1 0x20 DUP6 ADD SWAP4 SWAP1 SWAP4 MSTORE PUSH1 0x40 DUP5 ADD SWAP2 SWAP1 SWAP2 MSTORE PUSH1 0x60 DUP4 ADD MSTORE PUSH1 0x1 PUSH1 0x1 PUSH1 0xA0 SHL SUB AND PUSH1 0x80 DUP3 ADD MSTORE PUSH1 0xA0 ADD SWAP1 JUMP JUMPDEST PUSH1 0x0 DUP3 PUSH2 0xA68 JUMPI PUSH4 0x4E487B71 PUSH1 0xE0 SHL DUP2 MSTORE PUSH1 0x12 PUSH1 0x4 MSTORE PUSH1 0x24 DUP2 REVERT JUMPDEST POP DIV SWAP1 JUMP JUMPDEST PUSH1 0x2 DUP2 DIV PUSH1 0x1 DUP3 AND DUP1 PUSH2 0xA81 JUMPI PUSH1 0x7F DUP3 AND SWAP2 POP JUMPDEST PUSH1 0x20 DUP3 LT DUP2 EQ ISZERO PUSH2 0xAA2 JUMPI PUSH4 0x4E487B71 PUSH1 0xE0 SHL PUSH1 0x0 MSTORE PUSH1 0x22 PUSH1 0x4 MSTORE PUSH1 0x24 PUSH1 0x0 REVERT JUMPDEST POP SWAP2 SWAP1 POP JUMP JUMPDEST PUSH1 0x0 PUSH1 0x0 NOT DUP3 EQ ISZERO PUSH2 0xAC8 JUMPI PUSH4 0x4E487B71 PUSH1 0xE0 SHL DUP2 MSTORE PUSH1 0x11 PUSH1 0x4 MSTORE PUSH1 0x24 DUP2 REVERT JUMPDEST POP PUSH1 0x1 ADD SWAP1 JUMP JUMPDEST PUSH4 0x4E487B71 PUSH1 0xE0 SHL PUSH1 0x0 MSTORE PUSH1 0x41 PUSH1 0x4 MSTORE PUSH1 0x24 PUSH1 0x0 REVERT INVALID LOG2 PUSH5 0x6970667358 0x22 SLT KECCAK256 PUSH28 0x54D2660F53C69129E59162A99C15D979D70C835E1F1177944298E497 CALLER DUP14 DUP10 PUSH5 0x736F6C6343 STOP ADDMOD STOP STOP CALLER "},"gasEstimates":{"creation":{"codeDepositCost":"568600","executionCost":"infinite","totalCost":"infinite"},"external":{"approveRequest(uint256)":"44937","approvers(address)":"1287","approversCount()":"1117","contribute()":"42814","createRequest(string,uint256,address)":"infinite","finalizeRequest(uint256)":"infinite","getBasicData()":"3643","getRequests()":"infinite","manager()":"1115","minimunContribution()":"1072","requests(uint256)":"infinite"}},"methodIdentifiers":{"approveRequest(uint256)":"d7d1bbdb","approvers(address)":"0a144391","approversCount()":"82fde093","contribute()":"d7bb99ba","createRequest(string,uint256,address)":"8a9cfd55","finalizeRequest(uint256)":"03441006","getBasicData()":"b2548ecc","getRequests()":"8813ce12","manager()":"481c6a75","minimunContribution()":"a7f33715","requests(uint256)":"81d12c58"}},"storageLayout":{"storage":[{"astId":56,"contract":"Campaign.sol:Campaign","label":"votes","offset":0,"slot":"0","type":"t_mapping(t_uint256,t_mapping(t_address,t_bool))"},{"astId":58,"contract":"Campaign.sol:Campaign","label":"manager","offset":0,"slot":"1","type":"t_address"},{"astId":60,"contract":"Campaign.sol:Campaign","label":"minimunContribution","offset":0,"slot":"2","type":"t_uint256"},{"astId":64,"contract":"Campaign.sol:Campaign","label":"approvers","offset":0,"slot":"3","type":"t_mapping(t_address,t_bool)"},{"astId":66,"contract":"Campaign.sol:Campaign","label":"approversCount","offset":0,"slot":"4","type":"t_uint256"},{"astId":70,"contract":"Campaign.sol:Campaign","label":"requests","offset":0,"slot":"5","type":"t_array(t_struct(Request)50_storage)dyn_storage"}],"types":{"t_address":{"encoding":"inplace","label":"address","numberOfBytes":"20"},"t_array(t_struct(Request)50_storage)dyn_storage":{"base":"t_struct(Request)50_storage","encoding":"dynamic_array","label":"struct Campaign.Request[]","numberOfBytes":"32"},"t_bool":{"encoding":"inplace","label":"bool","numberOfBytes":"1"},"t_mapping(t_address,t_bool)":{"encoding":"mapping","key":"t_address","label":"mapping(address => bool)","numberOfBytes":"32","value":"t_bool"},"t_mapping(t_uint256,t_mapping(t_address,t_bool))":{"encoding":"mapping","key":"t_uint256","label":"mapping(uint256 => mapping(address => bool))","numberOfBytes":"32","value":"t_mapping(t_address,t_bool)"},"t_string_storage":{"encoding":"bytes","label":"string","numberOfBytes":"32"},"t_struct(Request)50_storage":{"encoding":"inplace","label":"struct Campaign.Request","members":[{"astId":41,"contract":"Campaign.sol:Campaign","label":"description","offset":0,"slot":"0","type":"t_string_storage"},{"astId":43,"contract":"Campaign.sol:Campaign","label":"value","offset":0,"slot":"1","type":"t_uint256"},{"astId":45,"contract":"Campaign.sol:Campaign","label":"recipient","offset":0,"slot":"2","type":"t_address"},{"astId":47,"contract":"Campaign.sol:Campaign","label":"complete","offset":20,"slot":"2","type":"t_bool"},{"astId":49,"contract":"Campaign.sol:Campaign","label":"approvedCount","offset":0,"slot":"3","type":"t_uint256"}],"numberOfBytes":"128"},"t_uint256":{"encoding":"inplace","label":"uint256","numberOfBytes":"32"}}},"userdoc":{"kind":"user","methods":{},"version":1}}